{
  "contractName": "ColorMinter",
  "abi": [
    {
      "anonymous": false,
      "inputs": [
        {
          "indexed": true,
          "internalType": "address",
          "name": "owner",
          "type": "address"
        },
        {
          "indexed": true,
          "internalType": "address",
          "name": "approved",
          "type": "address"
        },
        {
          "indexed": true,
          "internalType": "uint256",
          "name": "tokenId",
          "type": "uint256"
        }
      ],
      "name": "Approval",
      "type": "event"
    },
    {
      "anonymous": false,
      "inputs": [
        {
          "indexed": true,
          "internalType": "address",
          "name": "owner",
          "type": "address"
        },
        {
          "indexed": true,
          "internalType": "address",
          "name": "operator",
          "type": "address"
        },
        {
          "indexed": false,
          "internalType": "bool",
          "name": "approved",
          "type": "bool"
        }
      ],
      "name": "ApprovalForAll",
      "type": "event"
    },
    {
      "anonymous": false,
      "inputs": [
        {
          "indexed": true,
          "internalType": "address",
          "name": "previousOwner",
          "type": "address"
        },
        {
          "indexed": true,
          "internalType": "address",
          "name": "newOwner",
          "type": "address"
        }
      ],
      "name": "OwnershipTransferred",
      "type": "event"
    },
    {
      "anonymous": false,
      "inputs": [
        {
          "indexed": true,
          "internalType": "address",
          "name": "from",
          "type": "address"
        },
        {
          "indexed": true,
          "internalType": "address",
          "name": "to",
          "type": "address"
        },
        {
          "indexed": true,
          "internalType": "uint256",
          "name": "tokenId",
          "type": "uint256"
        }
      ],
      "name": "Transfer",
      "type": "event"
    },
    {
      "inputs": [
        {
          "internalType": "address",
          "name": "to",
          "type": "address"
        },
        {
          "internalType": "uint256",
          "name": "tokenId",
          "type": "uint256"
        }
      ],
      "name": "approve",
      "outputs": [],
      "stateMutability": "nonpayable",
      "type": "function"
    },
    {
      "inputs": [
        {
          "internalType": "address",
          "name": "owner",
          "type": "address"
        }
      ],
      "name": "balanceOf",
      "outputs": [
        {
          "internalType": "uint256",
          "name": "",
          "type": "uint256"
        }
      ],
      "stateMutability": "view",
      "type": "function"
    },
    {
      "inputs": [
        {
          "internalType": "uint256",
          "name": "tokenId",
          "type": "uint256"
        }
      ],
      "name": "getApproved",
      "outputs": [
        {
          "internalType": "address",
          "name": "",
          "type": "address"
        }
      ],
      "stateMutability": "view",
      "type": "function"
    },
    {
      "inputs": [
        {
          "internalType": "address",
          "name": "owner",
          "type": "address"
        },
        {
          "internalType": "address",
          "name": "operator",
          "type": "address"
        }
      ],
      "name": "isApprovedForAll",
      "outputs": [
        {
          "internalType": "bool",
          "name": "",
          "type": "bool"
        }
      ],
      "stateMutability": "view",
      "type": "function"
    },
    {
      "inputs": [],
      "name": "name",
      "outputs": [
        {
          "internalType": "string",
          "name": "",
          "type": "string"
        }
      ],
      "stateMutability": "view",
      "type": "function"
    },
    {
      "inputs": [],
      "name": "owner",
      "outputs": [
        {
          "internalType": "address",
          "name": "",
          "type": "address"
        }
      ],
      "stateMutability": "view",
      "type": "function"
    },
    {
      "inputs": [
        {
          "internalType": "uint256",
          "name": "tokenId",
          "type": "uint256"
        }
      ],
      "name": "ownerOf",
      "outputs": [
        {
          "internalType": "address",
          "name": "",
          "type": "address"
        }
      ],
      "stateMutability": "view",
      "type": "function"
    },
    {
      "inputs": [],
      "name": "renounceOwnership",
      "outputs": [],
      "stateMutability": "nonpayable",
      "type": "function"
    },
    {
      "inputs": [
        {
          "internalType": "address",
          "name": "from",
          "type": "address"
        },
        {
          "internalType": "address",
          "name": "to",
          "type": "address"
        },
        {
          "internalType": "uint256",
          "name": "tokenId",
          "type": "uint256"
        }
      ],
      "name": "safeTransferFrom",
      "outputs": [],
      "stateMutability": "nonpayable",
      "type": "function"
    },
    {
      "inputs": [
        {
          "internalType": "address",
          "name": "from",
          "type": "address"
        },
        {
          "internalType": "address",
          "name": "to",
          "type": "address"
        },
        {
          "internalType": "uint256",
          "name": "tokenId",
          "type": "uint256"
        },
        {
          "internalType": "bytes",
          "name": "_data",
          "type": "bytes"
        }
      ],
      "name": "safeTransferFrom",
      "outputs": [],
      "stateMutability": "nonpayable",
      "type": "function"
    },
    {
      "inputs": [
        {
          "internalType": "address",
          "name": "operator",
          "type": "address"
        },
        {
          "internalType": "bool",
          "name": "approved",
          "type": "bool"
        }
      ],
      "name": "setApprovalForAll",
      "outputs": [],
      "stateMutability": "nonpayable",
      "type": "function"
    },
    {
      "inputs": [
        {
          "internalType": "bytes4",
          "name": "interfaceId",
          "type": "bytes4"
        }
      ],
      "name": "supportsInterface",
      "outputs": [
        {
          "internalType": "bool",
          "name": "",
          "type": "bool"
        }
      ],
      "stateMutability": "view",
      "type": "function"
    },
    {
      "inputs": [],
      "name": "symbol",
      "outputs": [
        {
          "internalType": "string",
          "name": "",
          "type": "string"
        }
      ],
      "stateMutability": "view",
      "type": "function"
    },
    {
      "inputs": [
        {
          "internalType": "uint256",
          "name": "index",
          "type": "uint256"
        }
      ],
      "name": "tokenByIndex",
      "outputs": [
        {
          "internalType": "uint256",
          "name": "",
          "type": "uint256"
        }
      ],
      "stateMutability": "view",
      "type": "function"
    },
    {
      "inputs": [
        {
          "internalType": "address",
          "name": "owner",
          "type": "address"
        },
        {
          "internalType": "uint256",
          "name": "index",
          "type": "uint256"
        }
      ],
      "name": "tokenOfOwnerByIndex",
      "outputs": [
        {
          "internalType": "uint256",
          "name": "",
          "type": "uint256"
        }
      ],
      "stateMutability": "view",
      "type": "function"
    },
    {
      "inputs": [
        {
          "internalType": "uint256",
          "name": "tokenId",
          "type": "uint256"
        }
      ],
      "name": "tokenURI",
      "outputs": [
        {
          "internalType": "string",
          "name": "",
          "type": "string"
        }
      ],
      "stateMutability": "view",
      "type": "function"
    },
    {
      "inputs": [],
      "name": "totalSupply",
      "outputs": [
        {
          "internalType": "uint256",
          "name": "",
          "type": "uint256"
        }
      ],
      "stateMutability": "view",
      "type": "function"
    },
    {
      "inputs": [
        {
          "internalType": "address",
          "name": "from",
          "type": "address"
        },
        {
          "internalType": "address",
          "name": "to",
          "type": "address"
        },
        {
          "internalType": "uint256",
          "name": "tokenId",
          "type": "uint256"
        }
      ],
      "name": "transferFrom",
      "outputs": [],
      "stateMutability": "nonpayable",
      "type": "function"
    },
    {
      "inputs": [
        {
          "internalType": "address",
          "name": "newOwner",
          "type": "address"
        }
      ],
      "name": "transferOwnership",
      "outputs": [],
      "stateMutability": "nonpayable",
      "type": "function"
    },
    {
      "inputs": [],
      "name": "totalMinted",
      "outputs": [
        {
          "internalType": "uint256",
          "name": "",
          "type": "uint256"
        }
      ],
      "stateMutability": "view",
      "type": "function"
    },
    {
      "inputs": [
        {
          "internalType": "string",
          "name": "_uri",
          "type": "string"
        }
      ],
      "name": "tokenExists",
      "outputs": [
        {
          "internalType": "bool",
          "name": "",
          "type": "bool"
        }
      ],
      "stateMutability": "view",
      "type": "function"
    }
  ],
  "bytecode": "0x60806040523480156200001157600080fd5b506040518060400160405280600781526020017f44656c6761646f000000000000000000000000000000000000000000000000008152506040518060400160405280600481526020017f44454c4700000000000000000000000000000000000000000000000000000000815250816000908051906020019062000096929190620001a6565b508060019080519060200190620000af929190620001a6565b505050620000d2620000c6620000d860201b60201c565b620000e060201b60201c565b620002bb565b600033905090565b6000600b60009054906101000a900473ffffffffffffffffffffffffffffffffffffffff16905081600b60006101000a81548173ffffffffffffffffffffffffffffffffffffffff021916908373ffffffffffffffffffffffffffffffffffffffff1602179055508173ffffffffffffffffffffffffffffffffffffffff168173ffffffffffffffffffffffffffffffffffffffff167f8be0079c531659141344cd1fd0a4f28419497f9722a3daafe3b4186f6b6457e060405160405180910390a35050565b828054620001b49062000256565b90600052602060002090601f016020900481019282620001d8576000855562000224565b82601f10620001f357805160ff191683800117855562000224565b8280016001018555821562000224579182015b828111156200022357825182559160200191906001019062000206565b5b50905062000233919062000237565b5090565b5b808211156200025257600081600090555060010162000238565b5090565b600060028204905060018216806200026f57607f821691505b602082108114156200028657620002856200028c565b5b50919050565b7f4e487b7100000000000000000000000000000000000000000000000000000000600052602260045260246000fd5b61333a80620002cb6000396000f3fe608060405234801561001057600080fd5b50600436106101375760003560e01c80636352211e116100b8578063a22cb4651161007c578063a22cb46514610362578063a2309ff81461037e578063b88d4fde1461039c578063c87b56dd146103b8578063e985e9c5146103e8578063f2fde38b1461041857610137565b80636352211e146102bc57806370a08231146102ec578063715018a61461031c5780638da5cb5b1461032657806395d89b411461034457610137565b806323b872dd116100ff57806323b872dd146101f45780632f745c591461021057806342842e0e146102405780634f6ccce71461025c5780636059eae11461028c57610137565b806301ffc9a71461013c57806306fdde031461016c578063081812fc1461018a578063095ea7b3146101ba57806318160ddd146101d6575b600080fd5b61015660048036038101906101519190612251565b610434565b60405161016391906126e6565b60405180910390f35b610174610446565b6040516101819190612701565b60405180910390f35b6101a4600480360381019061019f91906122f4565b6104d8565b6040516101b1919061267f565b60405180910390f35b6101d460048036038101906101cf9190612211565b61055d565b005b6101de610675565b6040516101eb9190612943565b60405180910390f35b61020e600480360381019061020991906120fb565b610682565b005b61022a60048036038101906102259190612211565b6106e2565b6040516102379190612943565b60405180910390f35b61025a600480360381019061025591906120fb565b610787565b005b610276600480360381019061027191906122f4565b6107a7565b6040516102839190612943565b60405180910390f35b6102a660048036038101906102a191906122ab565b610818565b6040516102b391906126e6565b60405180910390f35b6102d660048036038101906102d191906122f4565b61084d565b6040516102e3919061267f565b60405180910390f35b6103066004803603810190610301919061208e565b6108ff565b6040516103139190612943565b60405180910390f35b6103246109b7565b005b61032e610a3f565b60405161033b919061267f565b60405180910390f35b61034c610a69565b6040516103599190612701565b60405180910390f35b61037c600480360381019061037791906121d1565b610afb565b005b610386610c7c565b6040516103939190612943565b60405180910390f35b6103b660048036038101906103b1919061214e565b610c86565b005b6103d260048036038101906103cd91906122f4565b610ce8565b6040516103df9190612701565b60405180910390f35b61040260048036038101906103fd91906120bb565b610cfa565b60405161040f91906126e6565b60405180910390f35b610432600480360381019061042d919061208e565b610d8e565b005b600061043f82610e86565b9050919050565b60606000805461045590612b99565b80601f016020809104026020016040519081016040528092919081815260200182805461048190612b99565b80156104ce5780601f106104a3576101008083540402835291602001916104ce565b820191906000526020600020905b8154815290600101906020018083116104b157829003601f168201915b5050505050905090565b60006104e382610f00565b610522576040517f08c379a000000000000000000000000000000000000000000000000000000000815260040161051990612863565b60405180910390fd5b6004600083815260200190815260200160002060009054906101000a900473ffffffffffffffffffffffffffffffffffffffff169050919050565b60006105688261084d565b90508073ffffffffffffffffffffffffffffffffffffffff168373ffffffffffffffffffffffffffffffffffffffff1614156105d9576040517f08c379a00000000000000000000000000000000000000000000000000000000081526004016105d0906128e3565b60405180910390fd5b8073ffffffffffffffffffffffffffffffffffffffff166105f8610f6c565b73ffffffffffffffffffffffffffffffffffffffff161480610627575061062681610621610f6c565b610cfa565b5b610666576040517f08c379a000000000000000000000000000000000000000000000000000000000815260040161065d906127e3565b60405180910390fd5b6106708383610f74565b505050565b6000600880549050905090565b61069361068d610f6c565b8261102d565b6106d2576040517f08c379a00000000000000000000000000000000000000000000000000000000081526004016106c990612903565b60405180910390fd5b6106dd83838361110b565b505050565b60006106ed836108ff565b821061072e576040517f08c379a000000000000000000000000000000000000000000000000000000000815260040161072590612723565b60405180910390fd5b600660008473ffffffffffffffffffffffffffffffffffffffff1673ffffffffffffffffffffffffffffffffffffffff168152602001908152602001600020600083815260200190815260200160002054905092915050565b6107a283838360405180602001604052806000815250610c86565b505050565b60006107b1610675565b82106107f2576040517f08c379a00000000000000000000000000000000000000000000000000000000081526004016107e990612923565b60405180910390fd5b6008828154811061080657610805612d32565b5b90600052602060002001549050919050565b6000600d8260405161082a9190612644565b908152602001604051809103902060009054906101000a900460ff169050919050565b6000806002600084815260200190815260200160002060009054906101000a900473ffffffffffffffffffffffffffffffffffffffff169050600073ffffffffffffffffffffffffffffffffffffffff168173ffffffffffffffffffffffffffffffffffffffff1614156108f6576040517f08c379a00000000000000000000000000000000000000000000000000000000081526004016108ed90612823565b60405180910390fd5b80915050919050565b60008073ffffffffffffffffffffffffffffffffffffffff168273ffffffffffffffffffffffffffffffffffffffff161415610970576040517f08c379a000000000000000000000000000000000000000000000000000000000815260040161096790612803565b60405180910390fd5b600360008373ffffffffffffffffffffffffffffffffffffffff1673ffffffffffffffffffffffffffffffffffffffff168152602001908152602001600020549050919050565b6109bf610f6c565b73ffffffffffffffffffffffffffffffffffffffff166109dd610a3f565b73ffffffffffffffffffffffffffffffffffffffff1614610a33576040517f08c379a0000000000000000000000000000000000000000000000000000000008152600401610a2a90612883565b60405180910390fd5b610a3d6000611367565b565b6000600b60009054906101000a900473ffffffffffffffffffffffffffffffffffffffff16905090565b606060018054610a7890612b99565b80601f0160208091040260200160405190810160405280929190818152602001828054610aa490612b99565b8015610af15780601f10610ac657610100808354040283529160200191610af1565b820191906000526020600020905b815481529060010190602001808311610ad457829003601f168201915b5050505050905090565b610b03610f6c565b73ffffffffffffffffffffffffffffffffffffffff168273ffffffffffffffffffffffffffffffffffffffff161415610b71576040517f08c379a0000000000000000000000000000000000000000000000000000000008152600401610b68906127a3565b60405180910390fd5b8060056000610b7e610f6c565b73ffffffffffffffffffffffffffffffffffffffff1673ffffffffffffffffffffffffffffffffffffffff16815260200190815260200160002060008473ffffffffffffffffffffffffffffffffffffffff1673ffffffffffffffffffffffffffffffffffffffff16815260200190815260200160002060006101000a81548160ff0219169083151502179055508173ffffffffffffffffffffffffffffffffffffffff16610c2b610f6c565b73ffffffffffffffffffffffffffffffffffffffff167f17307eab39ab6107e8899845ad3d59bd9653f200f220920489ca2b5937696c3183604051610c7091906126e6565b60405180910390a35050565b6000600c54905090565b610c97610c91610f6c565b8361102d565b610cd6576040517f08c379a0000000000000000000000000000000000000000000000000000000008152600401610ccd90612903565b60405180910390fd5b610ce28484848461142d565b50505050565b6060610cf382611489565b9050919050565b6000600560008473ffffffffffffffffffffffffffffffffffffffff1673ffffffffffffffffffffffffffffffffffffffff16815260200190815260200160002060008373ffffffffffffffffffffffffffffffffffffffff1673ffffffffffffffffffffffffffffffffffffffff16815260200190815260200160002060009054906101000a900460ff16905092915050565b610d96610f6c565b73ffffffffffffffffffffffffffffffffffffffff16610db4610a3f565b73ffffffffffffffffffffffffffffffffffffffff1614610e0a576040517f08c379a0000000000000000000000000000000000000000000000000000000008152600401610e0190612883565b60405180910390fd5b600073ffffffffffffffffffffffffffffffffffffffff168173ffffffffffffffffffffffffffffffffffffffff161415610e7a576040517f08c379a0000000000000000000000000000000000000000000000000000000008152600401610e7190612763565b60405180910390fd5b610e8381611367565b50565b60007f780e9d63000000000000000000000000000000000000000000000000000000007bffffffffffffffffffffffffffffffffffffffffffffffffffffffff1916827bffffffffffffffffffffffffffffffffffffffffffffffffffffffff19161480610ef95750610ef8826115db565b5b9050919050565b60008073ffffffffffffffffffffffffffffffffffffffff166002600084815260200190815260200160002060009054906101000a900473ffffffffffffffffffffffffffffffffffffffff1673ffffffffffffffffffffffffffffffffffffffff1614159050919050565b600033905090565b816004600083815260200190815260200160002060006101000a81548173ffffffffffffffffffffffffffffffffffffffff021916908373ffffffffffffffffffffffffffffffffffffffff160217905550808273ffffffffffffffffffffffffffffffffffffffff16610fe78361084d565b73ffffffffffffffffffffffffffffffffffffffff167f8c5be1e5ebec7d5bd14f71427d1e84f3dd0314c0f7b2291e5b200ac8c7c3b92560405160405180910390a45050565b600061103882610f00565b611077576040517f08c379a000000000000000000000000000000000000000000000000000000000815260040161106e906127c3565b60405180910390fd5b60006110828361084d565b90508073ffffffffffffffffffffffffffffffffffffffff168473ffffffffffffffffffffffffffffffffffffffff1614806110f157508373ffffffffffffffffffffffffffffffffffffffff166110d9846104d8565b73ffffffffffffffffffffffffffffffffffffffff16145b8061110257506111018185610cfa565b5b91505092915050565b8273ffffffffffffffffffffffffffffffffffffffff1661112b8261084d565b73ffffffffffffffffffffffffffffffffffffffff1614611181576040517f08c379a0000000000000000000000000000000000000000000000000000000008152600401611178906128a3565b60405180910390fd5b600073ffffffffffffffffffffffffffffffffffffffff168273ffffffffffffffffffffffffffffffffffffffff1614156111f1576040517f08c379a00000000000000000000000000000000000000000000000000000000081526004016111e890612783565b60405180910390fd5b6111fc8383836116bd565b611207600082610f74565b6001600360008573ffffffffffffffffffffffffffffffffffffffff1673ffffffffffffffffffffffffffffffffffffffff16815260200190815260200160002060008282546112579190612aaf565b925050819055506001600360008473ffffffffffffffffffffffffffffffffffffffff1673ffffffffffffffffffffffffffffffffffffffff16815260200190815260200160002060008282546112ae9190612a28565b92505081905550816002600083815260200190815260200160002060006101000a81548173ffffffffffffffffffffffffffffffffffffffff021916908373ffffffffffffffffffffffffffffffffffffffff160217905550808273ffffffffffffffffffffffffffffffffffffffff168473ffffffffffffffffffffffffffffffffffffffff167fddf252ad1be2c89b69c2b068fc378daa952ba7f163c4a11628f55a4df523b3ef60405160405180910390a4505050565b6000600b60009054906101000a900473ffffffffffffffffffffffffffffffffffffffff16905081600b60006101000a81548173ffffffffffffffffffffffffffffffffffffffff021916908373ffffffffffffffffffffffffffffffffffffffff1602179055508173ffffffffffffffffffffffffffffffffffffffff168173ffffffffffffffffffffffffffffffffffffffff167f8be0079c531659141344cd1fd0a4f28419497f9722a3daafe3b4186f6b6457e060405160405180910390a35050565b61143884848461110b565b611444848484846116cd565b611483576040517f08c379a000000000000000000000000000000000000000000000000000000000815260040161147a90612743565b60405180910390fd5b50505050565b606061149482610f00565b6114d3576040517f08c379a00000000000000000000000000000000000000000000000000000000081526004016114ca90612843565b60405180910390fd5b6000600a600084815260200190815260200160002080546114f390612b99565b80601f016020809104026020016040519081016040528092919081815260200182805461151f90612b99565b801561156c5780601f106115415761010080835404028352916020019161156c565b820191906000526020600020905b81548152906001019060200180831161154f57829003601f168201915b50505050509050600061157d611864565b90506000815114156115935781925050506115d6565b6000825111156115c85780826040516020016115b092919061265b565b604051602081830303815290604052925050506115d6565b6115d1846118a1565b925050505b919050565b60007f80ac58cd000000000000000000000000000000000000000000000000000000007bffffffffffffffffffffffffffffffffffffffffffffffffffffffff1916827bffffffffffffffffffffffffffffffffffffffffffffffffffffffff191614806116a657507f5b5e139f000000000000000000000000000000000000000000000000000000007bffffffffffffffffffffffffffffffffffffffffffffffffffffffff1916827bffffffffffffffffffffffffffffffffffffffffffffffffffffffff1916145b806116b657506116b582611948565b5b9050919050565b6116c88383836119b2565b505050565b60006116ee8473ffffffffffffffffffffffffffffffffffffffff16611ac6565b15611857578373ffffffffffffffffffffffffffffffffffffffff1663150b7a02611717610f6c565b8786866040518563ffffffff1660e01b8152600401611739949392919061269a565b602060405180830381600087803b15801561175357600080fd5b505af192505050801561178457506040513d601f19601f82011682018060405250810190611781919061227e565b60015b611807573d80600081146117b4576040519150601f19603f3d011682016040523d82523d6000602084013e6117b9565b606091505b506000815114156117ff576040517f08c379a00000000000000000000000000000000000000000000000000000000081526004016117f690612743565b60405180910390fd5b805181602001fd5b63150b7a0260e01b7bffffffffffffffffffffffffffffffffffffffffffffffffffffffff1916817bffffffffffffffffffffffffffffffffffffffffffffffffffffffff19161491505061185c565b600190505b949350505050565b60606040518060400160405280601581526020017f68747470733a2f2f697066732e696f2f697066732f0000000000000000000000815250905090565b60606118ac82610f00565b6118eb576040517f08c379a00000000000000000000000000000000000000000000000000000000081526004016118e2906128c3565b60405180910390fd5b60006118f5611864565b905060008151116119155760405180602001604052806000815250611940565b8061191f84611ad9565b60405160200161193092919061265b565b6040516020818303038152906040525b915050919050565b60007f01ffc9a7000000000000000000000000000000000000000000000000000000007bffffffffffffffffffffffffffffffffffffffffffffffffffffffff1916827bffffffffffffffffffffffffffffffffffffffffffffffffffffffff1916149050919050565b6119bd838383611c3a565b600073ffffffffffffffffffffffffffffffffffffffff168373ffffffffffffffffffffffffffffffffffffffff161415611a00576119fb81611c3f565b611a3f565b8173ffffffffffffffffffffffffffffffffffffffff168373ffffffffffffffffffffffffffffffffffffffff1614611a3e57611a3d8382611c88565b5b5b600073ffffffffffffffffffffffffffffffffffffffff168273ffffffffffffffffffffffffffffffffffffffff161415611a8257611a7d81611df5565b611ac1565b8273ffffffffffffffffffffffffffffffffffffffff168273ffffffffffffffffffffffffffffffffffffffff1614611ac057611abf8282611ec6565b5b5b505050565b600080823b905060008111915050919050565b60606000821415611b21576040518060400160405280600181526020017f30000000000000000000000000000000000000000000000000000000000000008152509050611c35565b600082905060005b60008214611b53578080611b3c90612bfc565b915050600a82611b4c9190612a7e565b9150611b29565b60008167ffffffffffffffff811115611b6f57611b6e612d61565b5b6040519080825280601f01601f191660200182016040528015611ba15781602001600182028036833780820191505090505b5090505b60008514611c2e57600182611bba9190612aaf565b9150600a85611bc99190612c45565b6030611bd59190612a28565b60f81b818381518110611beb57611bea612d32565b5b60200101907effffffffffffffffffffffffffffffffffffffffffffffffffffffffffffff1916908160001a905350600a85611c279190612a7e565b9450611ba5565b8093505050505b919050565b505050565b6008805490506009600083815260200190815260200160002081905550600881908060018154018082558091505060019003906000526020600020016000909190919091505550565b60006001611c95846108ff565b611c9f9190612aaf565b9050600060076000848152602001908152602001600020549050818114611d84576000600660008673ffffffffffffffffffffffffffffffffffffffff1673ffffffffffffffffffffffffffffffffffffffff168152602001908152602001600020600084815260200190815260200160002054905080600660008773ffffffffffffffffffffffffffffffffffffffff1673ffffffffffffffffffffffffffffffffffffffff168152602001908152602001600020600084815260200190815260200160002081905550816007600083815260200190815260200160002081905550505b6007600084815260200190815260200160002060009055600660008573ffffffffffffffffffffffffffffffffffffffff1673ffffffffffffffffffffffffffffffffffffffff16815260200190815260200160002060008381526020019081526020016000206000905550505050565b60006001600880549050611e099190612aaf565b9050600060096000848152602001908152602001600020549050600060088381548110611e3957611e38612d32565b5b906000526020600020015490508060088381548110611e5b57611e5a612d32565b5b906000526020600020018190555081600960008381526020019081526020016000208190555060096000858152602001908152602001600020600090556008805480611eaa57611ea9612d03565b5b6001900381819060005260206000200160009055905550505050565b6000611ed1836108ff565b905081600660008573ffffffffffffffffffffffffffffffffffffffff1673ffffffffffffffffffffffffffffffffffffffff168152602001908152602001600020600083815260200190815260200160002081905550806007600084815260200190815260200160002081905550505050565b6000611f58611f5384612983565b61295e565b905082815260208101848484011115611f7457611f73612d95565b5b611f7f848285612b57565b509392505050565b6000611f9a611f95846129b4565b61295e565b905082815260208101848484011115611fb657611fb5612d95565b5b611fc1848285612b57565b509392505050565b600081359050611fd8816132a8565b92915050565b600081359050611fed816132bf565b92915050565b600081359050612002816132d6565b92915050565b600081519050612017816132d6565b92915050565b600082601f83011261203257612031612d90565b5b8135612042848260208601611f45565b91505092915050565b600082601f8301126120605761205f612d90565b5b8135612070848260208601611f87565b91505092915050565b600081359050612088816132ed565b92915050565b6000602082840312156120a4576120a3612d9f565b5b60006120b284828501611fc9565b91505092915050565b600080604083850312156120d2576120d1612d9f565b5b60006120e085828601611fc9565b92505060206120f185828601611fc9565b9150509250929050565b60008060006060848603121561211457612113612d9f565b5b600061212286828701611fc9565b935050602061213386828701611fc9565b925050604061214486828701612079565b9150509250925092565b6000806000806080858703121561216857612167612d9f565b5b600061217687828801611fc9565b945050602061218787828801611fc9565b935050604061219887828801612079565b925050606085013567ffffffffffffffff8111156121b9576121b8612d9a565b5b6121c58782880161201d565b91505092959194509250565b600080604083850312156121e8576121e7612d9f565b5b60006121f685828601611fc9565b925050602061220785828601611fde565b9150509250929050565b6000806040838503121561222857612227612d9f565b5b600061223685828601611fc9565b925050602061224785828601612079565b9150509250929050565b60006020828403121561226757612266612d9f565b5b600061227584828501611ff3565b91505092915050565b60006020828403121561229457612293612d9f565b5b60006122a284828501612008565b91505092915050565b6000602082840312156122c1576122c0612d9f565b5b600082013567ffffffffffffffff8111156122df576122de612d9a565b5b6122eb8482850161204b565b91505092915050565b60006020828403121561230a57612309612d9f565b5b600061231884828501612079565b91505092915050565b61232a81612ae3565b82525050565b61233981612af5565b82525050565b600061234a826129e5565b61235481856129fb565b9350612364818560208601612b66565b61236d81612da4565b840191505092915050565b6000612383826129f0565b61238d8185612a0c565b935061239d818560208601612b66565b6123a681612da4565b840191505092915050565b60006123bc826129f0565b6123c68185612a1d565b93506123d6818560208601612b66565b80840191505092915050565b60006123ef602b83612a0c565b91506123fa82612db5565b604082019050919050565b6000612412603283612a0c565b915061241d82612e04565b604082019050919050565b6000612435602683612a0c565b915061244082612e53565b604082019050919050565b6000612458602483612a0c565b915061246382612ea2565b604082019050919050565b600061247b601983612a0c565b915061248682612ef1565b602082019050919050565b600061249e602c83612a0c565b91506124a982612f1a565b604082019050919050565b60006124c1603883612a0c565b91506124cc82612f69565b604082019050919050565b60006124e4602a83612a0c565b91506124ef82612fb8565b604082019050919050565b6000612507602983612a0c565b915061251282613007565b604082019050919050565b600061252a603183612a0c565b915061253582613056565b604082019050919050565b600061254d602c83612a0c565b9150612558826130a5565b604082019050919050565b6000612570602083612a0c565b915061257b826130f4565b602082019050919050565b6000612593602983612a0c565b915061259e8261311d565b604082019050919050565b60006125b6602f83612a0c565b91506125c18261316c565b604082019050919050565b60006125d9602183612a0c565b91506125e4826131bb565b604082019050919050565b60006125fc603183612a0c565b91506126078261320a565b604082019050919050565b600061261f602c83612a0c565b915061262a82613259565b604082019050919050565b61263e81612b4d565b82525050565b600061265082846123b1565b915081905092915050565b600061266782856123b1565b915061267382846123b1565b91508190509392505050565b60006020820190506126946000830184612321565b92915050565b60006080820190506126af6000830187612321565b6126bc6020830186612321565b6126c96040830185612635565b81810360608301526126db818461233f565b905095945050505050565b60006020820190506126fb6000830184612330565b92915050565b6000602082019050818103600083015261271b8184612378565b905092915050565b6000602082019050818103600083015261273c816123e2565b9050919050565b6000602082019050818103600083015261275c81612405565b9050919050565b6000602082019050818103600083015261277c81612428565b9050919050565b6000602082019050818103600083015261279c8161244b565b9050919050565b600060208201905081810360008301526127bc8161246e565b9050919050565b600060208201905081810360008301526127dc81612491565b9050919050565b600060208201905081810360008301526127fc816124b4565b9050919050565b6000602082019050818103600083015261281c816124d7565b9050919050565b6000602082019050818103600083015261283c816124fa565b9050919050565b6000602082019050818103600083015261285c8161251d565b9050919050565b6000602082019050818103600083015261287c81612540565b9050919050565b6000602082019050818103600083015261289c81612563565b9050919050565b600060208201905081810360008301526128bc81612586565b9050919050565b600060208201905081810360008301526128dc816125a9565b9050919050565b600060208201905081810360008301526128fc816125cc565b9050919050565b6000602082019050818103600083015261291c816125ef565b9050919050565b6000602082019050818103600083015261293c81612612565b9050919050565b60006020820190506129586000830184612635565b92915050565b6000612968612979565b90506129748282612bcb565b919050565b6000604051905090565b600067ffffffffffffffff82111561299e5761299d612d61565b5b6129a782612da4565b9050602081019050919050565b600067ffffffffffffffff8211156129cf576129ce612d61565b5b6129d882612da4565b9050602081019050919050565b600081519050919050565b600081519050919050565b600082825260208201905092915050565b600082825260208201905092915050565b600081905092915050565b6000612a3382612b4d565b9150612a3e83612b4d565b9250827fffffffffffffffffffffffffffffffffffffffffffffffffffffffffffffffff03821115612a7357612a72612c76565b5b828201905092915050565b6000612a8982612b4d565b9150612a9483612b4d565b925082612aa457612aa3612ca5565b5b828204905092915050565b6000612aba82612b4d565b9150612ac583612b4d565b925082821015612ad857612ad7612c76565b5b828203905092915050565b6000612aee82612b2d565b9050919050565b60008115159050919050565b60007fffffffff0000000000000000000000000000000000000000000000000000000082169050919050565b600073ffffffffffffffffffffffffffffffffffffffff82169050919050565b6000819050919050565b82818337600083830152505050565b60005b83811015612b84578082015181840152602081019050612b69565b83811115612b93576000848401525b50505050565b60006002820490506001821680612bb157607f821691505b60208210811415612bc557612bc4612cd4565b5b50919050565b612bd482612da4565b810181811067ffffffffffffffff82111715612bf357612bf2612d61565b5b80604052505050565b6000612c0782612b4d565b91507fffffffffffffffffffffffffffffffffffffffffffffffffffffffffffffffff821415612c3a57612c39612c76565b5b600182019050919050565b6000612c5082612b4d565b9150612c5b83612b4d565b925082612c6b57612c6a612ca5565b5b828206905092915050565b7f4e487b7100000000000000000000000000000000000000000000000000000000600052601160045260246000fd5b7f4e487b7100000000000000000000000000000000000000000000000000000000600052601260045260246000fd5b7f4e487b7100000000000000000000000000000000000000000000000000000000600052602260045260246000fd5b7f4e487b7100000000000000000000000000000000000000000000000000000000600052603160045260246000fd5b7f4e487b7100000000000000000000000000000000000000000000000000000000600052603260045260246000fd5b7f4e487b7100000000000000000000000000000000000000000000000000000000600052604160045260246000fd5b600080fd5b600080fd5b600080fd5b600080fd5b6000601f19601f8301169050919050565b7f455243373231456e756d657261626c653a206f776e657220696e646578206f7560008201527f74206f6620626f756e6473000000000000000000000000000000000000000000602082015250565b7f4552433732313a207472616e7366657220746f206e6f6e20455243373231526560008201527f63656976657220696d706c656d656e7465720000000000000000000000000000602082015250565b7f4f776e61626c653a206e6577206f776e657220697320746865207a65726f206160008201527f6464726573730000000000000000000000000000000000000000000000000000602082015250565b7f4552433732313a207472616e7366657220746f20746865207a65726f2061646460008201527f7265737300000000000000000000000000000000000000000000000000000000602082015250565b7f4552433732313a20617070726f766520746f2063616c6c657200000000000000600082015250565b7f4552433732313a206f70657261746f7220717565727920666f72206e6f6e657860008201527f697374656e7420746f6b656e0000000000000000000000000000000000000000602082015250565b7f4552433732313a20617070726f76652063616c6c6572206973206e6f74206f7760008201527f6e6572206e6f7220617070726f76656420666f7220616c6c0000000000000000602082015250565b7f4552433732313a2062616c616e636520717565727920666f7220746865207a6560008201527f726f206164647265737300000000000000000000000000000000000000000000602082015250565b7f4552433732313a206f776e657220717565727920666f72206e6f6e657869737460008201527f656e7420746f6b656e0000000000000000000000000000000000000000000000602082015250565b7f45524337323155524953746f726167653a2055524920717565727920666f722060008201527f6e6f6e6578697374656e7420746f6b656e000000000000000000000000000000602082015250565b7f4552433732313a20617070726f76656420717565727920666f72206e6f6e657860008201527f697374656e7420746f6b656e0000000000000000000000000000000000000000602082015250565b7f4f776e61626c653a2063616c6c6572206973206e6f7420746865206f776e6572600082015250565b7f4552433732313a207472616e73666572206f6620746f6b656e2074686174206960008201527f73206e6f74206f776e0000000000000000000000000000000000000000000000602082015250565b7f4552433732314d657461646174613a2055524920717565727920666f72206e6f60008201527f6e6578697374656e7420746f6b656e0000000000000000000000000000000000602082015250565b7f4552433732313a20617070726f76616c20746f2063757272656e74206f776e6560008201527f7200000000000000000000000000000000000000000000000000000000000000602082015250565b7f4552433732313a207472616e736665722063616c6c6572206973206e6f74206f60008201527f776e6572206e6f7220617070726f766564000000000000000000000000000000602082015250565b7f455243373231456e756d657261626c653a20676c6f62616c20696e646578206f60008201527f7574206f6620626f756e64730000000000000000000000000000000000000000602082015250565b6132b181612ae3565b81146132bc57600080fd5b50565b6132c881612af5565b81146132d357600080fd5b50565b6132df81612b01565b81146132ea57600080fd5b50565b6132f681612b4d565b811461330157600080fd5b5056fea2646970667358221220c424c5e3a25f8d5ecf36b8e8da81207b218b1efd29328c35f1ddb6c50d2b0a5e64736f6c63430008060033",
  "immutableReferences": {},
  "source": "// SPDX-License-Identifier: MIT\npragma solidity ^0.8.0;\n\nimport \"./Delgado.sol\";\n\n/**\n * @title An NFT minter\n * @author Adrian Delgado, https://github.com/adriandelgg\n */\n// Set Token URI w/ IPFS metadata\ncontract ColorMinter is Delgado {\n    // The token ID that will be given to new minted tokens.\n    uint256 private _tokenId;\n\n    // Mapping from color to check if it exists\n    mapping(string => bool) private _tokenExists;\n\n    // Ex: \"#21F32\"\n    // Mints a new token based on a HEX color.\n    // Add tokenURI creation\n    // URI Must be just the IPFS hash due to baseURI being set.\n    function mint(string memory _uri) internal returns (uint256) {\n        require(!_tokenExists[_uri], \"NFT already exists!\");\n        _safeMint(msg.sender, _tokenId);\n        _tokenExists[_uri] = true;\n        _tokenId++;\n        return _tokenId - 1;\n    }\n\n    // The total amount of tokens that have been minted.\n    function totalMinted() public view returns (uint256) {\n        return _tokenId;\n    }\n\n    // Checks if a color has been minted.\n    function tokenExists(string memory _uri) public view returns (bool) {\n        return _tokenExists[_uri];\n    }\n}\n",
  "sourcePath": "/home/dark/Documents/Projects/nft-exchange/contracts/ColorMinter.sol",
  "compiler": {
    "name": "solc",
    "version": "0.8.6+commit.11564f7e.Emscripten.clang"
  },
  "schemaVersion": "3.4.1",
  "updatedAt": "2021-08-04T21:16:55.730Z",
  "devdoc": {
    "author": "Adrian Delgado, https://github.com/adriandelgg",
    "kind": "dev",
    "methods": {
      "approve(address,uint256)": {
        "details": "See {IERC721-approve}."
      },
      "balanceOf(address)": {
        "details": "See {IERC721-balanceOf}."
      },
      "getApproved(uint256)": {
        "details": "See {IERC721-getApproved}."
      },
      "isApprovedForAll(address,address)": {
        "details": "See {IERC721-isApprovedForAll}."
      },
      "name()": {
        "details": "See {IERC721Metadata-name}."
      },
      "owner()": {
        "details": "Returns the address of the current owner."
      },
      "ownerOf(uint256)": {
        "details": "See {IERC721-ownerOf}."
      },
      "renounceOwnership()": {
        "details": "Leaves the contract without owner. It will not be possible to call `onlyOwner` functions anymore. Can only be called by the current owner. NOTE: Renouncing ownership will leave the contract without an owner, thereby removing any functionality that is only available to the owner."
      },
      "safeTransferFrom(address,address,uint256)": {
        "details": "See {IERC721-safeTransferFrom}."
      },
      "safeTransferFrom(address,address,uint256,bytes)": {
        "details": "See {IERC721-safeTransferFrom}."
      },
      "setApprovalForAll(address,bool)": {
        "details": "See {IERC721-setApprovalForAll}."
      },
      "symbol()": {
        "details": "See {IERC721Metadata-symbol}."
      },
      "tokenByIndex(uint256)": {
        "details": "See {IERC721Enumerable-tokenByIndex}."
      },
      "tokenOfOwnerByIndex(address,uint256)": {
        "details": "See {IERC721Enumerable-tokenOfOwnerByIndex}."
      },
      "totalSupply()": {
        "details": "See {IERC721Enumerable-totalSupply}."
      },
      "transferFrom(address,address,uint256)": {
        "details": "See {IERC721-transferFrom}."
      },
      "transferOwnership(address)": {
        "details": "Transfers ownership of the contract to a new account (`newOwner`). Can only be called by the current owner."
      }
    },
    "title": "An NFT minter",
    "version": 1
  },
  "userdoc": {
    "kind": "user",
    "methods": {},
    "version": 1
  }
}