{
  "contractName": "Delgado",
  "abi": [
    {
      "inputs": [],
      "stateMutability": "nonpayable",
      "type": "constructor"
    },
    {
      "anonymous": false,
      "inputs": [
        {
          "indexed": true,
          "internalType": "address",
          "name": "owner",
          "type": "address"
        },
        {
          "indexed": true,
          "internalType": "address",
          "name": "approved",
          "type": "address"
        },
        {
          "indexed": true,
          "internalType": "uint256",
          "name": "tokenId",
          "type": "uint256"
        }
      ],
      "name": "Approval",
      "type": "event"
    },
    {
      "anonymous": false,
      "inputs": [
        {
          "indexed": true,
          "internalType": "address",
          "name": "owner",
          "type": "address"
        },
        {
          "indexed": true,
          "internalType": "address",
          "name": "operator",
          "type": "address"
        },
        {
          "indexed": false,
          "internalType": "bool",
          "name": "approved",
          "type": "bool"
        }
      ],
      "name": "ApprovalForAll",
      "type": "event"
    },
    {
      "anonymous": false,
      "inputs": [
        {
          "indexed": true,
          "internalType": "address",
          "name": "previousOwner",
          "type": "address"
        },
        {
          "indexed": true,
          "internalType": "address",
          "name": "newOwner",
          "type": "address"
        }
      ],
      "name": "OwnershipTransferred",
      "type": "event"
    },
    {
      "anonymous": false,
      "inputs": [
        {
          "indexed": true,
          "internalType": "address",
          "name": "from",
          "type": "address"
        },
        {
          "indexed": true,
          "internalType": "address",
          "name": "to",
          "type": "address"
        },
        {
          "indexed": true,
          "internalType": "uint256",
          "name": "tokenId",
          "type": "uint256"
        }
      ],
      "name": "Transfer",
      "type": "event"
    },
    {
      "inputs": [
        {
          "internalType": "address",
          "name": "to",
          "type": "address"
        },
        {
          "internalType": "uint256",
          "name": "tokenId",
          "type": "uint256"
        }
      ],
      "name": "approve",
      "outputs": [],
      "stateMutability": "nonpayable",
      "type": "function"
    },
    {
      "inputs": [
        {
          "internalType": "address",
          "name": "owner",
          "type": "address"
        }
      ],
      "name": "balanceOf",
      "outputs": [
        {
          "internalType": "uint256",
          "name": "",
          "type": "uint256"
        }
      ],
      "stateMutability": "view",
      "type": "function"
    },
    {
      "inputs": [
        {
          "internalType": "uint256",
          "name": "tokenId",
          "type": "uint256"
        }
      ],
      "name": "getApproved",
      "outputs": [
        {
          "internalType": "address",
          "name": "",
          "type": "address"
        }
      ],
      "stateMutability": "view",
      "type": "function"
    },
    {
      "inputs": [
        {
          "internalType": "address",
          "name": "owner",
          "type": "address"
        },
        {
          "internalType": "address",
          "name": "operator",
          "type": "address"
        }
      ],
      "name": "isApprovedForAll",
      "outputs": [
        {
          "internalType": "bool",
          "name": "",
          "type": "bool"
        }
      ],
      "stateMutability": "view",
      "type": "function"
    },
    {
      "inputs": [],
      "name": "name",
      "outputs": [
        {
          "internalType": "string",
          "name": "",
          "type": "string"
        }
      ],
      "stateMutability": "view",
      "type": "function"
    },
    {
      "inputs": [],
      "name": "owner",
      "outputs": [
        {
          "internalType": "address",
          "name": "",
          "type": "address"
        }
      ],
      "stateMutability": "view",
      "type": "function"
    },
    {
      "inputs": [
        {
          "internalType": "uint256",
          "name": "tokenId",
          "type": "uint256"
        }
      ],
      "name": "ownerOf",
      "outputs": [
        {
          "internalType": "address",
          "name": "",
          "type": "address"
        }
      ],
      "stateMutability": "view",
      "type": "function"
    },
    {
      "inputs": [],
      "name": "renounceOwnership",
      "outputs": [],
      "stateMutability": "nonpayable",
      "type": "function"
    },
    {
      "inputs": [
        {
          "internalType": "address",
          "name": "from",
          "type": "address"
        },
        {
          "internalType": "address",
          "name": "to",
          "type": "address"
        },
        {
          "internalType": "uint256",
          "name": "tokenId",
          "type": "uint256"
        }
      ],
      "name": "safeTransferFrom",
      "outputs": [],
      "stateMutability": "nonpayable",
      "type": "function"
    },
    {
      "inputs": [
        {
          "internalType": "address",
          "name": "from",
          "type": "address"
        },
        {
          "internalType": "address",
          "name": "to",
          "type": "address"
        },
        {
          "internalType": "uint256",
          "name": "tokenId",
          "type": "uint256"
        },
        {
          "internalType": "bytes",
          "name": "_data",
          "type": "bytes"
        }
      ],
      "name": "safeTransferFrom",
      "outputs": [],
      "stateMutability": "nonpayable",
      "type": "function"
    },
    {
      "inputs": [
        {
          "internalType": "address",
          "name": "operator",
          "type": "address"
        },
        {
          "internalType": "bool",
          "name": "approved",
          "type": "bool"
        }
      ],
      "name": "setApprovalForAll",
      "outputs": [],
      "stateMutability": "nonpayable",
      "type": "function"
    },
    {
      "inputs": [],
      "name": "symbol",
      "outputs": [
        {
          "internalType": "string",
          "name": "",
          "type": "string"
        }
      ],
      "stateMutability": "view",
      "type": "function"
    },
    {
      "inputs": [
        {
          "internalType": "uint256",
          "name": "index",
          "type": "uint256"
        }
      ],
      "name": "tokenByIndex",
      "outputs": [
        {
          "internalType": "uint256",
          "name": "",
          "type": "uint256"
        }
      ],
      "stateMutability": "view",
      "type": "function"
    },
    {
      "inputs": [
        {
          "internalType": "address",
          "name": "owner",
          "type": "address"
        },
        {
          "internalType": "uint256",
          "name": "index",
          "type": "uint256"
        }
      ],
      "name": "tokenOfOwnerByIndex",
      "outputs": [
        {
          "internalType": "uint256",
          "name": "",
          "type": "uint256"
        }
      ],
      "stateMutability": "view",
      "type": "function"
    },
    {
      "inputs": [],
      "name": "totalSupply",
      "outputs": [
        {
          "internalType": "uint256",
          "name": "",
          "type": "uint256"
        }
      ],
      "stateMutability": "view",
      "type": "function"
    },
    {
      "inputs": [
        {
          "internalType": "address",
          "name": "from",
          "type": "address"
        },
        {
          "internalType": "address",
          "name": "to",
          "type": "address"
        },
        {
          "internalType": "uint256",
          "name": "tokenId",
          "type": "uint256"
        }
      ],
      "name": "transferFrom",
      "outputs": [],
      "stateMutability": "nonpayable",
      "type": "function"
    },
    {
      "inputs": [
        {
          "internalType": "address",
          "name": "newOwner",
          "type": "address"
        }
      ],
      "name": "transferOwnership",
      "outputs": [],
      "stateMutability": "nonpayable",
      "type": "function"
    },
    {
      "inputs": [
        {
          "internalType": "uint256",
          "name": "tokenId",
          "type": "uint256"
        }
      ],
      "name": "tokenURI",
      "outputs": [
        {
          "internalType": "string",
          "name": "",
          "type": "string"
        }
      ],
      "stateMutability": "view",
      "type": "function"
    },
    {
      "inputs": [
        {
          "internalType": "bytes4",
          "name": "interfaceId",
          "type": "bytes4"
        }
      ],
      "name": "supportsInterface",
      "outputs": [
        {
          "internalType": "bool",
          "name": "",
          "type": "bool"
        }
      ],
      "stateMutability": "view",
      "type": "function"
    }
  ],
  "bytecode": "0x60806040523480156200001157600080fd5b506040518060400160405280600781526020017f44656c6761646f000000000000000000000000000000000000000000000000008152506040518060400160405280600481526020017f44454c4700000000000000000000000000000000000000000000000000000000815250816000908051906020019062000096929190620001a6565b508060019080519060200190620000af929190620001a6565b505050620000d2620000c6620000d860201b60201c565b620000e060201b60201c565b620002bb565b600033905090565b6000600b60009054906101000a900473ffffffffffffffffffffffffffffffffffffffff16905081600b60006101000a81548173ffffffffffffffffffffffffffffffffffffffff021916908373ffffffffffffffffffffffffffffffffffffffff1602179055508173ffffffffffffffffffffffffffffffffffffffff168173ffffffffffffffffffffffffffffffffffffffff167f8be0079c531659141344cd1fd0a4f28419497f9722a3daafe3b4186f6b6457e060405160405180910390a35050565b828054620001b49062000256565b90600052602060002090601f016020900481019282620001d8576000855562000224565b82601f10620001f357805160ff191683800117855562000224565b8280016001018555821562000224579182015b828111156200022357825182559160200191906001019062000206565b5b50905062000233919062000237565b5090565b5b808211156200025257600081600090555060010162000238565b5090565b600060028204905060018216806200026f57607f821691505b602082108114156200028657620002856200028c565b5b50919050565b7f4e487b7100000000000000000000000000000000000000000000000000000000600052602260045260246000fd5b61319680620002cb6000396000f3fe608060405234801561001057600080fd5b50600436106101215760003560e01c80636352211e116100ad578063a22cb46511610071578063a22cb4651461031c578063b88d4fde14610338578063c87b56dd14610354578063e985e9c514610384578063f2fde38b146103b457610121565b80636352211e1461027657806370a08231146102a6578063715018a6146102d65780638da5cb5b146102e057806395d89b41146102fe57610121565b806318160ddd116100f457806318160ddd146101c057806323b872dd146101de5780632f745c59146101fa57806342842e0e1461022a5780634f6ccce71461024657610121565b806301ffc9a71461012657806306fdde0314610156578063081812fc14610174578063095ea7b3146101a4575b600080fd5b610140600480360381019061013b919061213e565b6103d0565b60405161014d9190612573565b60405180910390f35b61015e6103e2565b60405161016b919061258e565b60405180910390f35b61018e60048036038101906101899190612198565b610474565b60405161019b919061250c565b60405180910390f35b6101be60048036038101906101b991906120fe565b6104f9565b005b6101c8610611565b6040516101d591906127d0565b60405180910390f35b6101f860048036038101906101f39190611fe8565b61061e565b005b610214600480360381019061020f91906120fe565b61067e565b60405161022191906127d0565b60405180910390f35b610244600480360381019061023f9190611fe8565b610723565b005b610260600480360381019061025b9190612198565b610743565b60405161026d91906127d0565b60405180910390f35b610290600480360381019061028b9190612198565b6107b4565b60405161029d919061250c565b60405180910390f35b6102c060048036038101906102bb9190611f7b565b610866565b6040516102cd91906127d0565b60405180910390f35b6102de61091e565b005b6102e86109a6565b6040516102f5919061250c565b60405180910390f35b6103066109d0565b604051610313919061258e565b60405180910390f35b610336600480360381019061033191906120be565b610a62565b005b610352600480360381019061034d919061203b565b610be3565b005b61036e60048036038101906103699190612198565b610c45565b60405161037b919061258e565b60405180910390f35b61039e60048036038101906103999190611fa8565b610c57565b6040516103ab9190612573565b60405180910390f35b6103ce60048036038101906103c99190611f7b565b610ceb565b005b60006103db82610de3565b9050919050565b6060600080546103f1906129f5565b80601f016020809104026020016040519081016040528092919081815260200182805461041d906129f5565b801561046a5780601f1061043f5761010080835404028352916020019161046a565b820191906000526020600020905b81548152906001019060200180831161044d57829003601f168201915b5050505050905090565b600061047f82610e5d565b6104be576040517f08c379a00000000000000000000000000000000000000000000000000000000081526004016104b5906126f0565b60405180910390fd5b6004600083815260200190815260200160002060009054906101000a900473ffffffffffffffffffffffffffffffffffffffff169050919050565b6000610504826107b4565b90508073ffffffffffffffffffffffffffffffffffffffff168373ffffffffffffffffffffffffffffffffffffffff161415610575576040517f08c379a000000000000000000000000000000000000000000000000000000000815260040161056c90612770565b60405180910390fd5b8073ffffffffffffffffffffffffffffffffffffffff16610594610ec9565b73ffffffffffffffffffffffffffffffffffffffff1614806105c357506105c2816105bd610ec9565b610c57565b5b610602576040517f08c379a00000000000000000000000000000000000000000000000000000000081526004016105f990612670565b60405180910390fd5b61060c8383610ed1565b505050565b6000600880549050905090565b61062f610629610ec9565b82610f8a565b61066e576040517f08c379a000000000000000000000000000000000000000000000000000000000815260040161066590612790565b60405180910390fd5b610679838383611068565b505050565b600061068983610866565b82106106ca576040517f08c379a00000000000000000000000000000000000000000000000000000000081526004016106c1906125b0565b60405180910390fd5b600660008473ffffffffffffffffffffffffffffffffffffffff1673ffffffffffffffffffffffffffffffffffffffff168152602001908152602001600020600083815260200190815260200160002054905092915050565b61073e83838360405180602001604052806000815250610be3565b505050565b600061074d610611565b821061078e576040517f08c379a0000000000000000000000000000000000000000000000000000000008152600401610785906127b0565b60405180910390fd5b600882815481106107a2576107a1612b8e565b5b90600052602060002001549050919050565b6000806002600084815260200190815260200160002060009054906101000a900473ffffffffffffffffffffffffffffffffffffffff169050600073ffffffffffffffffffffffffffffffffffffffff168173ffffffffffffffffffffffffffffffffffffffff16141561085d576040517f08c379a0000000000000000000000000000000000000000000000000000000008152600401610854906126b0565b60405180910390fd5b80915050919050565b60008073ffffffffffffffffffffffffffffffffffffffff168273ffffffffffffffffffffffffffffffffffffffff1614156108d7576040517f08c379a00000000000000000000000000000000000000000000000000000000081526004016108ce90612690565b60405180910390fd5b600360008373ffffffffffffffffffffffffffffffffffffffff1673ffffffffffffffffffffffffffffffffffffffff168152602001908152602001600020549050919050565b610926610ec9565b73ffffffffffffffffffffffffffffffffffffffff166109446109a6565b73ffffffffffffffffffffffffffffffffffffffff161461099a576040517f08c379a000000000000000000000000000000000000000000000000000000000815260040161099190612710565b60405180910390fd5b6109a460006112c4565b565b6000600b60009054906101000a900473ffffffffffffffffffffffffffffffffffffffff16905090565b6060600180546109df906129f5565b80601f0160208091040260200160405190810160405280929190818152602001828054610a0b906129f5565b8015610a585780601f10610a2d57610100808354040283529160200191610a58565b820191906000526020600020905b815481529060010190602001808311610a3b57829003601f168201915b5050505050905090565b610a6a610ec9565b73ffffffffffffffffffffffffffffffffffffffff168273ffffffffffffffffffffffffffffffffffffffff161415610ad8576040517f08c379a0000000000000000000000000000000000000000000000000000000008152600401610acf90612630565b60405180910390fd5b8060056000610ae5610ec9565b73ffffffffffffffffffffffffffffffffffffffff1673ffffffffffffffffffffffffffffffffffffffff16815260200190815260200160002060008473ffffffffffffffffffffffffffffffffffffffff1673ffffffffffffffffffffffffffffffffffffffff16815260200190815260200160002060006101000a81548160ff0219169083151502179055508173ffffffffffffffffffffffffffffffffffffffff16610b92610ec9565b73ffffffffffffffffffffffffffffffffffffffff167f17307eab39ab6107e8899845ad3d59bd9653f200f220920489ca2b5937696c3183604051610bd79190612573565b60405180910390a35050565b610bf4610bee610ec9565b83610f8a565b610c33576040517f08c379a0000000000000000000000000000000000000000000000000000000008152600401610c2a90612790565b60405180910390fd5b610c3f8484848461138a565b50505050565b6060610c50826113e6565b9050919050565b6000600560008473ffffffffffffffffffffffffffffffffffffffff1673ffffffffffffffffffffffffffffffffffffffff16815260200190815260200160002060008373ffffffffffffffffffffffffffffffffffffffff1673ffffffffffffffffffffffffffffffffffffffff16815260200190815260200160002060009054906101000a900460ff16905092915050565b610cf3610ec9565b73ffffffffffffffffffffffffffffffffffffffff16610d116109a6565b73ffffffffffffffffffffffffffffffffffffffff1614610d67576040517f08c379a0000000000000000000000000000000000000000000000000000000008152600401610d5e90612710565b60405180910390fd5b600073ffffffffffffffffffffffffffffffffffffffff168173ffffffffffffffffffffffffffffffffffffffff161415610dd7576040517f08c379a0000000000000000000000000000000000000000000000000000000008152600401610dce906125f0565b60405180910390fd5b610de0816112c4565b50565b60007f780e9d63000000000000000000000000000000000000000000000000000000007bffffffffffffffffffffffffffffffffffffffffffffffffffffffff1916827bffffffffffffffffffffffffffffffffffffffffffffffffffffffff19161480610e565750610e5582611538565b5b9050919050565b60008073ffffffffffffffffffffffffffffffffffffffff166002600084815260200190815260200160002060009054906101000a900473ffffffffffffffffffffffffffffffffffffffff1673ffffffffffffffffffffffffffffffffffffffff1614159050919050565b600033905090565b816004600083815260200190815260200160002060006101000a81548173ffffffffffffffffffffffffffffffffffffffff021916908373ffffffffffffffffffffffffffffffffffffffff160217905550808273ffffffffffffffffffffffffffffffffffffffff16610f44836107b4565b73ffffffffffffffffffffffffffffffffffffffff167f8c5be1e5ebec7d5bd14f71427d1e84f3dd0314c0f7b2291e5b200ac8c7c3b92560405160405180910390a45050565b6000610f9582610e5d565b610fd4576040517f08c379a0000000000000000000000000000000000000000000000000000000008152600401610fcb90612650565b60405180910390fd5b6000610fdf836107b4565b90508073ffffffffffffffffffffffffffffffffffffffff168473ffffffffffffffffffffffffffffffffffffffff16148061104e57508373ffffffffffffffffffffffffffffffffffffffff1661103684610474565b73ffffffffffffffffffffffffffffffffffffffff16145b8061105f575061105e8185610c57565b5b91505092915050565b8273ffffffffffffffffffffffffffffffffffffffff16611088826107b4565b73ffffffffffffffffffffffffffffffffffffffff16146110de576040517f08c379a00000000000000000000000000000000000000000000000000000000081526004016110d590612730565b60405180910390fd5b600073ffffffffffffffffffffffffffffffffffffffff168273ffffffffffffffffffffffffffffffffffffffff16141561114e576040517f08c379a000000000000000000000000000000000000000000000000000000000815260040161114590612610565b60405180910390fd5b61115983838361161a565b611164600082610ed1565b6001600360008573ffffffffffffffffffffffffffffffffffffffff1673ffffffffffffffffffffffffffffffffffffffff16815260200190815260200160002060008282546111b4919061290b565b925050819055506001600360008473ffffffffffffffffffffffffffffffffffffffff1673ffffffffffffffffffffffffffffffffffffffff168152602001908152602001600020600082825461120b9190612884565b92505081905550816002600083815260200190815260200160002060006101000a81548173ffffffffffffffffffffffffffffffffffffffff021916908373ffffffffffffffffffffffffffffffffffffffff160217905550808273ffffffffffffffffffffffffffffffffffffffff168473ffffffffffffffffffffffffffffffffffffffff167fddf252ad1be2c89b69c2b068fc378daa952ba7f163c4a11628f55a4df523b3ef60405160405180910390a4505050565b6000600b60009054906101000a900473ffffffffffffffffffffffffffffffffffffffff16905081600b60006101000a81548173ffffffffffffffffffffffffffffffffffffffff021916908373ffffffffffffffffffffffffffffffffffffffff1602179055508173ffffffffffffffffffffffffffffffffffffffff168173ffffffffffffffffffffffffffffffffffffffff167f8be0079c531659141344cd1fd0a4f28419497f9722a3daafe3b4186f6b6457e060405160405180910390a35050565b611395848484611068565b6113a18484848461162a565b6113e0576040517f08c379a00000000000000000000000000000000000000000000000000000000081526004016113d7906125d0565b60405180910390fd5b50505050565b60606113f182610e5d565b611430576040517f08c379a0000000000000000000000000000000000000000000000000000000008152600401611427906126d0565b60405180910390fd5b6000600a60008481526020019081526020016000208054611450906129f5565b80601f016020809104026020016040519081016040528092919081815260200182805461147c906129f5565b80156114c95780601f1061149e576101008083540402835291602001916114c9565b820191906000526020600020905b8154815290600101906020018083116114ac57829003601f168201915b5050505050905060006114da6117c1565b90506000815114156114f0578192505050611533565b60008251111561152557808260405160200161150d9291906124e8565b60405160208183030381529060405292505050611533565b61152e846117fe565b925050505b919050565b60007f80ac58cd000000000000000000000000000000000000000000000000000000007bffffffffffffffffffffffffffffffffffffffffffffffffffffffff1916827bffffffffffffffffffffffffffffffffffffffffffffffffffffffff1916148061160357507f5b5e139f000000000000000000000000000000000000000000000000000000007bffffffffffffffffffffffffffffffffffffffffffffffffffffffff1916827bffffffffffffffffffffffffffffffffffffffffffffffffffffffff1916145b806116135750611612826118a5565b5b9050919050565b61162583838361190f565b505050565b600061164b8473ffffffffffffffffffffffffffffffffffffffff16611a23565b156117b4578373ffffffffffffffffffffffffffffffffffffffff1663150b7a02611674610ec9565b8786866040518563ffffffff1660e01b81526004016116969493929190612527565b602060405180830381600087803b1580156116b057600080fd5b505af19250505080156116e157506040513d601f19601f820116820180604052508101906116de919061216b565b60015b611764573d8060008114611711576040519150601f19603f3d011682016040523d82523d6000602084013e611716565b606091505b5060008151141561175c576040517f08c379a0000000000000000000000000000000000000000000000000000000008152600401611753906125d0565b60405180910390fd5b805181602001fd5b63150b7a0260e01b7bffffffffffffffffffffffffffffffffffffffffffffffffffffffff1916817bffffffffffffffffffffffffffffffffffffffffffffffffffffffff1916149150506117b9565b600190505b949350505050565b60606040518060400160405280601581526020017f68747470733a2f2f697066732e696f2f697066732f0000000000000000000000815250905090565b606061180982610e5d565b611848576040517f08c379a000000000000000000000000000000000000000000000000000000000815260040161183f90612750565b60405180910390fd5b60006118526117c1565b90506000815111611872576040518060200160405280600081525061189d565b8061187c84611a36565b60405160200161188d9291906124e8565b6040516020818303038152906040525b915050919050565b60007f01ffc9a7000000000000000000000000000000000000000000000000000000007bffffffffffffffffffffffffffffffffffffffffffffffffffffffff1916827bffffffffffffffffffffffffffffffffffffffffffffffffffffffff1916149050919050565b61191a838383611b97565b600073ffffffffffffffffffffffffffffffffffffffff168373ffffffffffffffffffffffffffffffffffffffff16141561195d5761195881611b9c565b61199c565b8173ffffffffffffffffffffffffffffffffffffffff168373ffffffffffffffffffffffffffffffffffffffff161461199b5761199a8382611be5565b5b5b600073ffffffffffffffffffffffffffffffffffffffff168273ffffffffffffffffffffffffffffffffffffffff1614156119df576119da81611d52565b611a1e565b8273ffffffffffffffffffffffffffffffffffffffff168273ffffffffffffffffffffffffffffffffffffffff1614611a1d57611a1c8282611e23565b5b5b505050565b600080823b905060008111915050919050565b60606000821415611a7e576040518060400160405280600181526020017f30000000000000000000000000000000000000000000000000000000000000008152509050611b92565b600082905060005b60008214611ab0578080611a9990612a58565b915050600a82611aa991906128da565b9150611a86565b60008167ffffffffffffffff811115611acc57611acb612bbd565b5b6040519080825280601f01601f191660200182016040528015611afe5781602001600182028036833780820191505090505b5090505b60008514611b8b57600182611b17919061290b565b9150600a85611b269190612aa1565b6030611b329190612884565b60f81b818381518110611b4857611b47612b8e565b5b60200101907effffffffffffffffffffffffffffffffffffffffffffffffffffffffffffff1916908160001a905350600a85611b8491906128da565b9450611b02565b8093505050505b919050565b505050565b6008805490506009600083815260200190815260200160002081905550600881908060018154018082558091505060019003906000526020600020016000909190919091505550565b60006001611bf284610866565b611bfc919061290b565b9050600060076000848152602001908152602001600020549050818114611ce1576000600660008673ffffffffffffffffffffffffffffffffffffffff1673ffffffffffffffffffffffffffffffffffffffff168152602001908152602001600020600084815260200190815260200160002054905080600660008773ffffffffffffffffffffffffffffffffffffffff1673ffffffffffffffffffffffffffffffffffffffff168152602001908152602001600020600084815260200190815260200160002081905550816007600083815260200190815260200160002081905550505b6007600084815260200190815260200160002060009055600660008573ffffffffffffffffffffffffffffffffffffffff1673ffffffffffffffffffffffffffffffffffffffff16815260200190815260200160002060008381526020019081526020016000206000905550505050565b60006001600880549050611d66919061290b565b9050600060096000848152602001908152602001600020549050600060088381548110611d9657611d95612b8e565b5b906000526020600020015490508060088381548110611db857611db7612b8e565b5b906000526020600020018190555081600960008381526020019081526020016000208190555060096000858152602001908152602001600020600090556008805480611e0757611e06612b5f565b5b6001900381819060005260206000200160009055905550505050565b6000611e2e83610866565b905081600660008573ffffffffffffffffffffffffffffffffffffffff1673ffffffffffffffffffffffffffffffffffffffff168152602001908152602001600020600083815260200190815260200160002081905550806007600084815260200190815260200160002081905550505050565b6000611eb5611eb084612810565b6127eb565b905082815260208101848484011115611ed157611ed0612bf1565b5b611edc8482856129b3565b509392505050565b600081359050611ef381613104565b92915050565b600081359050611f088161311b565b92915050565b600081359050611f1d81613132565b92915050565b600081519050611f3281613132565b92915050565b600082601f830112611f4d57611f4c612bec565b5b8135611f5d848260208601611ea2565b91505092915050565b600081359050611f7581613149565b92915050565b600060208284031215611f9157611f90612bfb565b5b6000611f9f84828501611ee4565b91505092915050565b60008060408385031215611fbf57611fbe612bfb565b5b6000611fcd85828601611ee4565b9250506020611fde85828601611ee4565b9150509250929050565b60008060006060848603121561200157612000612bfb565b5b600061200f86828701611ee4565b935050602061202086828701611ee4565b925050604061203186828701611f66565b9150509250925092565b6000806000806080858703121561205557612054612bfb565b5b600061206387828801611ee4565b945050602061207487828801611ee4565b935050604061208587828801611f66565b925050606085013567ffffffffffffffff8111156120a6576120a5612bf6565b5b6120b287828801611f38565b91505092959194509250565b600080604083850312156120d5576120d4612bfb565b5b60006120e385828601611ee4565b92505060206120f485828601611ef9565b9150509250929050565b6000806040838503121561211557612114612bfb565b5b600061212385828601611ee4565b925050602061213485828601611f66565b9150509250929050565b60006020828403121561215457612153612bfb565b5b600061216284828501611f0e565b91505092915050565b60006020828403121561218157612180612bfb565b5b600061218f84828501611f23565b91505092915050565b6000602082840312156121ae576121ad612bfb565b5b60006121bc84828501611f66565b91505092915050565b6121ce8161293f565b82525050565b6121dd81612951565b82525050565b60006121ee82612841565b6121f88185612857565b93506122088185602086016129c2565b61221181612c00565b840191505092915050565b60006122278261284c565b6122318185612868565b93506122418185602086016129c2565b61224a81612c00565b840191505092915050565b60006122608261284c565b61226a8185612879565b935061227a8185602086016129c2565b80840191505092915050565b6000612293602b83612868565b915061229e82612c11565b604082019050919050565b60006122b6603283612868565b91506122c182612c60565b604082019050919050565b60006122d9602683612868565b91506122e482612caf565b604082019050919050565b60006122fc602483612868565b915061230782612cfe565b604082019050919050565b600061231f601983612868565b915061232a82612d4d565b602082019050919050565b6000612342602c83612868565b915061234d82612d76565b604082019050919050565b6000612365603883612868565b915061237082612dc5565b604082019050919050565b6000612388602a83612868565b915061239382612e14565b604082019050919050565b60006123ab602983612868565b91506123b682612e63565b604082019050919050565b60006123ce603183612868565b91506123d982612eb2565b604082019050919050565b60006123f1602c83612868565b91506123fc82612f01565b604082019050919050565b6000612414602083612868565b915061241f82612f50565b602082019050919050565b6000612437602983612868565b915061244282612f79565b604082019050919050565b600061245a602f83612868565b915061246582612fc8565b604082019050919050565b600061247d602183612868565b915061248882613017565b604082019050919050565b60006124a0603183612868565b91506124ab82613066565b604082019050919050565b60006124c3602c83612868565b91506124ce826130b5565b604082019050919050565b6124e2816129a9565b82525050565b60006124f48285612255565b91506125008284612255565b91508190509392505050565b600060208201905061252160008301846121c5565b92915050565b600060808201905061253c60008301876121c5565b61254960208301866121c5565b61255660408301856124d9565b818103606083015261256881846121e3565b905095945050505050565b600060208201905061258860008301846121d4565b92915050565b600060208201905081810360008301526125a8818461221c565b905092915050565b600060208201905081810360008301526125c981612286565b9050919050565b600060208201905081810360008301526125e9816122a9565b9050919050565b60006020820190508181036000830152612609816122cc565b9050919050565b60006020820190508181036000830152612629816122ef565b9050919050565b6000602082019050818103600083015261264981612312565b9050919050565b6000602082019050818103600083015261266981612335565b9050919050565b6000602082019050818103600083015261268981612358565b9050919050565b600060208201905081810360008301526126a98161237b565b9050919050565b600060208201905081810360008301526126c98161239e565b9050919050565b600060208201905081810360008301526126e9816123c1565b9050919050565b60006020820190508181036000830152612709816123e4565b9050919050565b6000602082019050818103600083015261272981612407565b9050919050565b600060208201905081810360008301526127498161242a565b9050919050565b600060208201905081810360008301526127698161244d565b9050919050565b6000602082019050818103600083015261278981612470565b9050919050565b600060208201905081810360008301526127a981612493565b9050919050565b600060208201905081810360008301526127c9816124b6565b9050919050565b60006020820190506127e560008301846124d9565b92915050565b60006127f5612806565b90506128018282612a27565b919050565b6000604051905090565b600067ffffffffffffffff82111561282b5761282a612bbd565b5b61283482612c00565b9050602081019050919050565b600081519050919050565b600081519050919050565b600082825260208201905092915050565b600082825260208201905092915050565b600081905092915050565b600061288f826129a9565b915061289a836129a9565b9250827fffffffffffffffffffffffffffffffffffffffffffffffffffffffffffffffff038211156128cf576128ce612ad2565b5b828201905092915050565b60006128e5826129a9565b91506128f0836129a9565b925082612900576128ff612b01565b5b828204905092915050565b6000612916826129a9565b9150612921836129a9565b92508282101561293457612933612ad2565b5b828203905092915050565b600061294a82612989565b9050919050565b60008115159050919050565b60007fffffffff0000000000000000000000000000000000000000000000000000000082169050919050565b600073ffffffffffffffffffffffffffffffffffffffff82169050919050565b6000819050919050565b82818337600083830152505050565b60005b838110156129e05780820151818401526020810190506129c5565b838111156129ef576000848401525b50505050565b60006002820490506001821680612a0d57607f821691505b60208210811415612a2157612a20612b30565b5b50919050565b612a3082612c00565b810181811067ffffffffffffffff82111715612a4f57612a4e612bbd565b5b80604052505050565b6000612a63826129a9565b91507fffffffffffffffffffffffffffffffffffffffffffffffffffffffffffffffff821415612a9657612a95612ad2565b5b600182019050919050565b6000612aac826129a9565b9150612ab7836129a9565b925082612ac757612ac6612b01565b5b828206905092915050565b7f4e487b7100000000000000000000000000000000000000000000000000000000600052601160045260246000fd5b7f4e487b7100000000000000000000000000000000000000000000000000000000600052601260045260246000fd5b7f4e487b7100000000000000000000000000000000000000000000000000000000600052602260045260246000fd5b7f4e487b7100000000000000000000000000000000000000000000000000000000600052603160045260246000fd5b7f4e487b7100000000000000000000000000000000000000000000000000000000600052603260045260246000fd5b7f4e487b7100000000000000000000000000000000000000000000000000000000600052604160045260246000fd5b600080fd5b600080fd5b600080fd5b600080fd5b6000601f19601f8301169050919050565b7f455243373231456e756d657261626c653a206f776e657220696e646578206f7560008201527f74206f6620626f756e6473000000000000000000000000000000000000000000602082015250565b7f4552433732313a207472616e7366657220746f206e6f6e20455243373231526560008201527f63656976657220696d706c656d656e7465720000000000000000000000000000602082015250565b7f4f776e61626c653a206e6577206f776e657220697320746865207a65726f206160008201527f6464726573730000000000000000000000000000000000000000000000000000602082015250565b7f4552433732313a207472616e7366657220746f20746865207a65726f2061646460008201527f7265737300000000000000000000000000000000000000000000000000000000602082015250565b7f4552433732313a20617070726f766520746f2063616c6c657200000000000000600082015250565b7f4552433732313a206f70657261746f7220717565727920666f72206e6f6e657860008201527f697374656e7420746f6b656e0000000000000000000000000000000000000000602082015250565b7f4552433732313a20617070726f76652063616c6c6572206973206e6f74206f7760008201527f6e6572206e6f7220617070726f76656420666f7220616c6c0000000000000000602082015250565b7f4552433732313a2062616c616e636520717565727920666f7220746865207a6560008201527f726f206164647265737300000000000000000000000000000000000000000000602082015250565b7f4552433732313a206f776e657220717565727920666f72206e6f6e657869737460008201527f656e7420746f6b656e0000000000000000000000000000000000000000000000602082015250565b7f45524337323155524953746f726167653a2055524920717565727920666f722060008201527f6e6f6e6578697374656e7420746f6b656e000000000000000000000000000000602082015250565b7f4552433732313a20617070726f76656420717565727920666f72206e6f6e657860008201527f697374656e7420746f6b656e0000000000000000000000000000000000000000602082015250565b7f4f776e61626c653a2063616c6c6572206973206e6f7420746865206f776e6572600082015250565b7f4552433732313a207472616e73666572206f6620746f6b656e2074686174206960008201527f73206e6f74206f776e0000000000000000000000000000000000000000000000602082015250565b7f4552433732314d657461646174613a2055524920717565727920666f72206e6f60008201527f6e6578697374656e7420746f6b656e0000000000000000000000000000000000602082015250565b7f4552433732313a20617070726f76616c20746f2063757272656e74206f776e6560008201527f7200000000000000000000000000000000000000000000000000000000000000602082015250565b7f4552433732313a207472616e736665722063616c6c6572206973206e6f74206f60008201527f776e6572206e6f7220617070726f766564000000000000000000000000000000602082015250565b7f455243373231456e756d657261626c653a20676c6f62616c20696e646578206f60008201527f7574206f6620626f756e64730000000000000000000000000000000000000000602082015250565b61310d8161293f565b811461311857600080fd5b50565b61312481612951565b811461312f57600080fd5b50565b61313b8161295d565b811461314657600080fd5b50565b613152816129a9565b811461315d57600080fd5b5056fea26469706673582212205947b7e7855ce2523ab098d84578820881f0eb2b44cada119968f99cf292891764736f6c63430008060033",
  "immutableReferences": {},
  "source": "// SPDX-License-Identifier: MIT\npragma solidity ^0.8.0;\n\nimport \"@openzeppelin/contracts/token/ERC721/extensions/ERC721Enumerable.sol\";\nimport \"@openzeppelin/contracts/token/ERC721/ERC721.sol\";\nimport \"@openzeppelin/contracts/token/ERC721/extensions/ERC721URIStorage.sol\";\nimport \"@openzeppelin/contracts/access/Ownable.sol\";\n\ncontract Delgado is ERC721, ERC721Enumerable, ERC721URIStorage, Ownable {\n    constructor() ERC721(\"Delgado\", \"DELG\") {}\n\n    function _baseURI() internal pure override returns (string memory) {\n        return \"https://ipfs.io/ipfs/\";\n    }\n\n    function _beforeTokenTransfer(\n        address from,\n        address to,\n        uint256 tokenId\n    ) internal override(ERC721, ERC721Enumerable) {\n        super._beforeTokenTransfer(from, to, tokenId);\n    }\n\n    function _burn(uint256 tokenId)\n        internal\n        override(ERC721, ERC721URIStorage)\n    {\n        super._burn(tokenId);\n    }\n\n    function tokenURI(uint256 tokenId)\n        public\n        view\n        override(ERC721, ERC721URIStorage)\n        returns (string memory)\n    {\n        return super.tokenURI(tokenId);\n    }\n\n    function supportsInterface(bytes4 interfaceId)\n        public\n        view\n        override(ERC721, ERC721Enumerable)\n        returns (bool)\n    {\n        return super.supportsInterface(interfaceId);\n    }\n}\n",
  "sourcePath": "/home/dark/Documents/Projects/nft-exchange/contracts/Delgado.sol",
  "compiler": {
    "name": "solc",
    "version": "0.8.6+commit.11564f7e.Emscripten.clang"
  },
  "schemaVersion": "3.4.1",
  "updatedAt": "2021-08-03T00:27:24.790Z",
  "devdoc": {
    "kind": "dev",
    "methods": {
      "approve(address,uint256)": {
        "details": "See {IERC721-approve}."
      },
      "balanceOf(address)": {
        "details": "See {IERC721-balanceOf}."
      },
      "getApproved(uint256)": {
        "details": "See {IERC721-getApproved}."
      },
      "isApprovedForAll(address,address)": {
        "details": "See {IERC721-isApprovedForAll}."
      },
      "name()": {
        "details": "See {IERC721Metadata-name}."
      },
      "owner()": {
        "details": "Returns the address of the current owner."
      },
      "ownerOf(uint256)": {
        "details": "See {IERC721-ownerOf}."
      },
      "renounceOwnership()": {
        "details": "Leaves the contract without owner. It will not be possible to call `onlyOwner` functions anymore. Can only be called by the current owner. NOTE: Renouncing ownership will leave the contract without an owner, thereby removing any functionality that is only available to the owner."
      },
      "safeTransferFrom(address,address,uint256)": {
        "details": "See {IERC721-safeTransferFrom}."
      },
      "safeTransferFrom(address,address,uint256,bytes)": {
        "details": "See {IERC721-safeTransferFrom}."
      },
      "setApprovalForAll(address,bool)": {
        "details": "See {IERC721-setApprovalForAll}."
      },
      "symbol()": {
        "details": "See {IERC721Metadata-symbol}."
      },
      "tokenByIndex(uint256)": {
        "details": "See {IERC721Enumerable-tokenByIndex}."
      },
      "tokenOfOwnerByIndex(address,uint256)": {
        "details": "See {IERC721Enumerable-tokenOfOwnerByIndex}."
      },
      "totalSupply()": {
        "details": "See {IERC721Enumerable-totalSupply}."
      },
      "transferFrom(address,address,uint256)": {
        "details": "See {IERC721-transferFrom}."
      },
      "transferOwnership(address)": {
        "details": "Transfers ownership of the contract to a new account (`newOwner`). Can only be called by the current owner."
      }
    },
    "version": 1
  },
  "userdoc": {
    "kind": "user",
    "methods": {},
    "version": 1
  }
}