{
  "contractName": "ERC721Holder",
  "abi": [
    {
      "inputs": [
        {
          "internalType": "address",
          "name": "",
          "type": "address"
        },
        {
          "internalType": "address",
          "name": "",
          "type": "address"
        },
        {
          "internalType": "uint256",
          "name": "",
          "type": "uint256"
        },
        {
          "internalType": "bytes",
          "name": "",
          "type": "bytes"
        }
      ],
      "name": "onERC721Received",
      "outputs": [
        {
          "internalType": "bytes4",
          "name": "",
          "type": "bytes4"
        }
      ],
      "stateMutability": "nonpayable",
      "type": "function"
    }
  ],
  "bytecode": "0x608060405234801561001057600080fd5b50610371806100206000396000f3fe608060405234801561001057600080fd5b506004361061002b5760003560e01c8063150b7a0214610030575b600080fd5b61004a6004803603810190610045919061010e565b610060565b60405161005791906101a0565b60405180910390f35b600063150b7a0260e01b9050949350505050565b6000610087610082846101e0565b6101bb565b9050828152602081018484840111156100a3576100a26102ed565b5b6100ae848285610279565b509392505050565b6000813590506100c58161030d565b92915050565b600082601f8301126100e0576100df6102e8565b5b81356100f0848260208601610074565b91505092915050565b60008135905061010881610324565b92915050565b60008060008060808587031215610128576101276102f7565b5b6000610136878288016100b6565b9450506020610147878288016100b6565b9350506040610158878288016100f9565b925050606085013567ffffffffffffffff811115610179576101786102f2565b5b610185878288016100cb565b91505092959194509250565b61019a81610223565b82525050565b60006020820190506101b56000830184610191565b92915050565b60006101c56101d6565b90506101d18282610288565b919050565b6000604051905090565b600067ffffffffffffffff8211156101fb576101fa6102b9565b5b610204826102fc565b9050602081019050919050565b600061021c8261024f565b9050919050565b60007fffffffff0000000000000000000000000000000000000000000000000000000082169050919050565b600073ffffffffffffffffffffffffffffffffffffffff82169050919050565b6000819050919050565b82818337600083830152505050565b610291826102fc565b810181811067ffffffffffffffff821117156102b0576102af6102b9565b5b80604052505050565b7f4e487b7100000000000000000000000000000000000000000000000000000000600052604160045260246000fd5b600080fd5b600080fd5b600080fd5b600080fd5b6000601f19601f8301169050919050565b61031681610211565b811461032157600080fd5b50565b61032d8161026f565b811461033857600080fd5b5056fea26469706673582212202088bd4f6840a723c88dcb64bb5ae34f21244937f3aa0379131333d7fa0fd5d864736f6c63430008050033",
  "immutableReferences": {},
  "source": "// SPDX-License-Identifier: MIT\n\npragma solidity ^0.8.0;\n\nimport \"../IERC721Receiver.sol\";\n\n/**\n * @dev Implementation of the {IERC721Receiver} interface.\n *\n * Accepts all token transfers.\n * Make sure the contract is able to use its token with {IERC721-safeTransferFrom}, {IERC721-approve} or {IERC721-setApprovalForAll}.\n */\ncontract ERC721Holder is IERC721Receiver {\n    /**\n     * @dev See {IERC721Receiver-onERC721Received}.\n     *\n     * Always returns `IERC721Receiver.onERC721Received.selector`.\n     */\n    function onERC721Received(\n        address,\n        address,\n        uint256,\n        bytes memory\n    ) public virtual override returns (bytes4) {\n        return this.onERC721Received.selector;\n    }\n}\n",
  "sourcePath": "@openzeppelin/contracts/token/ERC721/utils/ERC721Holder.sol",
  "compiler": {
    "name": "solc",
    "version": "0.8.5+commit.a4f2e591.Emscripten.clang"
  },
  "schemaVersion": "3.4.1",
  "updatedAt": "2021-08-02T03:17:06.784Z",
  "devdoc": {
    "details": "Implementation of the {IERC721Receiver} interface. Accepts all token transfers. Make sure the contract is able to use its token with {IERC721-safeTransferFrom}, {IERC721-approve} or {IERC721-setApprovalForAll}.",
    "kind": "dev",
    "methods": {
      "onERC721Received(address,address,uint256,bytes)": {
        "details": "See {IERC721Receiver-onERC721Received}. Always returns `IERC721Receiver.onERC721Received.selector`."
      }
    },
    "version": 1
  },
  "userdoc": {
    "kind": "user",
    "methods": {},
    "version": 1
  }
}