{
  "contractName": "Exchange",
  "abi": [
    {
      "anonymous": false,
      "inputs": [
        {
          "indexed": true,
          "internalType": "address",
          "name": "owner",
          "type": "address"
        },
        {
          "indexed": true,
          "internalType": "address",
          "name": "approved",
          "type": "address"
        },
        {
          "indexed": true,
          "internalType": "uint256",
          "name": "tokenId",
          "type": "uint256"
        }
      ],
      "name": "Approval",
      "type": "event"
    },
    {
      "anonymous": false,
      "inputs": [
        {
          "indexed": true,
          "internalType": "address",
          "name": "owner",
          "type": "address"
        },
        {
          "indexed": true,
          "internalType": "address",
          "name": "operator",
          "type": "address"
        },
        {
          "indexed": false,
          "internalType": "bool",
          "name": "approved",
          "type": "bool"
        }
      ],
      "name": "ApprovalForAll",
      "type": "event"
    },
    {
      "anonymous": false,
      "inputs": [
        {
          "indexed": true,
          "internalType": "address",
          "name": "previousOwner",
          "type": "address"
        },
        {
          "indexed": true,
          "internalType": "address",
          "name": "newOwner",
          "type": "address"
        }
      ],
      "name": "OwnershipTransferred",
      "type": "event"
    },
    {
      "anonymous": false,
      "inputs": [
        {
          "indexed": true,
          "internalType": "address",
          "name": "from",
          "type": "address"
        },
        {
          "indexed": false,
          "internalType": "uint256",
          "name": "amount",
          "type": "uint256"
        }
      ],
      "name": "ReceivedEther",
      "type": "event"
    },
    {
      "anonymous": false,
      "inputs": [
        {
          "indexed": true,
          "internalType": "uint256",
          "name": "tokenId",
          "type": "uint256"
        },
        {
          "indexed": true,
          "internalType": "address",
          "name": "buyer",
          "type": "address"
        },
        {
          "indexed": true,
          "internalType": "address",
          "name": "seller",
          "type": "address"
        }
      ],
      "name": "TokenPurchased",
      "type": "event"
    },
    {
      "anonymous": false,
      "inputs": [
        {
          "indexed": true,
          "internalType": "address",
          "name": "from",
          "type": "address"
        },
        {
          "indexed": true,
          "internalType": "uint256",
          "name": "tokenId",
          "type": "uint256"
        },
        {
          "indexed": false,
          "internalType": "uint256",
          "name": "price",
          "type": "uint256"
        }
      ],
      "name": "TokenTransferredToExchange",
      "type": "event"
    },
    {
      "anonymous": false,
      "inputs": [
        {
          "indexed": true,
          "internalType": "address",
          "name": "from",
          "type": "address"
        },
        {
          "indexed": true,
          "internalType": "address",
          "name": "to",
          "type": "address"
        },
        {
          "indexed": true,
          "internalType": "uint256",
          "name": "tokenId",
          "type": "uint256"
        }
      ],
      "name": "Transfer",
      "type": "event"
    },
    {
      "stateMutability": "payable",
      "type": "fallback"
    },
    {
      "inputs": [
        {
          "internalType": "address",
          "name": "to",
          "type": "address"
        },
        {
          "internalType": "uint256",
          "name": "tokenId",
          "type": "uint256"
        }
      ],
      "name": "approve",
      "outputs": [],
      "stateMutability": "nonpayable",
      "type": "function"
    },
    {
      "inputs": [
        {
          "internalType": "address",
          "name": "owner",
          "type": "address"
        }
      ],
      "name": "balanceOf",
      "outputs": [
        {
          "internalType": "uint256",
          "name": "",
          "type": "uint256"
        }
      ],
      "stateMutability": "view",
      "type": "function"
    },
    {
      "inputs": [
        {
          "internalType": "uint256",
          "name": "tokenId",
          "type": "uint256"
        }
      ],
      "name": "getApproved",
      "outputs": [
        {
          "internalType": "address",
          "name": "",
          "type": "address"
        }
      ],
      "stateMutability": "view",
      "type": "function"
    },
    {
      "inputs": [
        {
          "internalType": "address",
          "name": "owner",
          "type": "address"
        },
        {
          "internalType": "address",
          "name": "operator",
          "type": "address"
        }
      ],
      "name": "isApprovedForAll",
      "outputs": [
        {
          "internalType": "bool",
          "name": "",
          "type": "bool"
        }
      ],
      "stateMutability": "view",
      "type": "function"
    },
    {
      "inputs": [],
      "name": "name",
      "outputs": [
        {
          "internalType": "string",
          "name": "",
          "type": "string"
        }
      ],
      "stateMutability": "view",
      "type": "function"
    },
    {
      "inputs": [
        {
          "internalType": "address",
          "name": "",
          "type": "address"
        },
        {
          "internalType": "address",
          "name": "",
          "type": "address"
        },
        {
          "internalType": "uint256",
          "name": "",
          "type": "uint256"
        },
        {
          "internalType": "bytes",
          "name": "",
          "type": "bytes"
        }
      ],
      "name": "onERC721Received",
      "outputs": [
        {
          "internalType": "bytes4",
          "name": "",
          "type": "bytes4"
        }
      ],
      "stateMutability": "nonpayable",
      "type": "function"
    },
    {
      "inputs": [],
      "name": "owner",
      "outputs": [
        {
          "internalType": "address",
          "name": "",
          "type": "address"
        }
      ],
      "stateMutability": "view",
      "type": "function"
    },
    {
      "inputs": [
        {
          "internalType": "uint256",
          "name": "tokenId",
          "type": "uint256"
        }
      ],
      "name": "ownerOf",
      "outputs": [
        {
          "internalType": "address",
          "name": "",
          "type": "address"
        }
      ],
      "stateMutability": "view",
      "type": "function"
    },
    {
      "inputs": [],
      "name": "renounceOwnership",
      "outputs": [],
      "stateMutability": "nonpayable",
      "type": "function"
    },
    {
      "inputs": [
        {
          "internalType": "address",
          "name": "from",
          "type": "address"
        },
        {
          "internalType": "address",
          "name": "to",
          "type": "address"
        },
        {
          "internalType": "uint256",
          "name": "tokenId",
          "type": "uint256"
        }
      ],
      "name": "safeTransferFrom",
      "outputs": [],
      "stateMutability": "nonpayable",
      "type": "function"
    },
    {
      "inputs": [
        {
          "internalType": "address",
          "name": "from",
          "type": "address"
        },
        {
          "internalType": "address",
          "name": "to",
          "type": "address"
        },
        {
          "internalType": "uint256",
          "name": "tokenId",
          "type": "uint256"
        },
        {
          "internalType": "bytes",
          "name": "_data",
          "type": "bytes"
        }
      ],
      "name": "safeTransferFrom",
      "outputs": [],
      "stateMutability": "nonpayable",
      "type": "function"
    },
    {
      "inputs": [
        {
          "internalType": "address",
          "name": "operator",
          "type": "address"
        },
        {
          "internalType": "bool",
          "name": "approved",
          "type": "bool"
        }
      ],
      "name": "setApprovalForAll",
      "outputs": [],
      "stateMutability": "nonpayable",
      "type": "function"
    },
    {
      "inputs": [
        {
          "internalType": "bytes4",
          "name": "interfaceId",
          "type": "bytes4"
        }
      ],
      "name": "supportsInterface",
      "outputs": [
        {
          "internalType": "bool",
          "name": "",
          "type": "bool"
        }
      ],
      "stateMutability": "view",
      "type": "function"
    },
    {
      "inputs": [],
      "name": "symbol",
      "outputs": [
        {
          "internalType": "string",
          "name": "",
          "type": "string"
        }
      ],
      "stateMutability": "view",
      "type": "function"
    },
    {
      "inputs": [
        {
          "internalType": "uint256",
          "name": "index",
          "type": "uint256"
        }
      ],
      "name": "tokenByIndex",
      "outputs": [
        {
          "internalType": "uint256",
          "name": "",
          "type": "uint256"
        }
      ],
      "stateMutability": "view",
      "type": "function"
    },
    {
      "inputs": [
        {
          "internalType": "string",
          "name": "_uri",
          "type": "string"
        }
      ],
      "name": "tokenExists",
      "outputs": [
        {
          "internalType": "bool",
          "name": "",
          "type": "bool"
        }
      ],
      "stateMutability": "view",
      "type": "function"
    },
    {
      "inputs": [
        {
          "internalType": "address",
          "name": "owner",
          "type": "address"
        },
        {
          "internalType": "uint256",
          "name": "index",
          "type": "uint256"
        }
      ],
      "name": "tokenOfOwnerByIndex",
      "outputs": [
        {
          "internalType": "uint256",
          "name": "",
          "type": "uint256"
        }
      ],
      "stateMutability": "view",
      "type": "function"
    },
    {
      "inputs": [
        {
          "internalType": "uint256",
          "name": "tokenId",
          "type": "uint256"
        }
      ],
      "name": "tokenURI",
      "outputs": [
        {
          "internalType": "string",
          "name": "",
          "type": "string"
        }
      ],
      "stateMutability": "view",
      "type": "function"
    },
    {
      "inputs": [],
      "name": "totalMinted",
      "outputs": [
        {
          "internalType": "uint256",
          "name": "",
          "type": "uint256"
        }
      ],
      "stateMutability": "view",
      "type": "function"
    },
    {
      "inputs": [],
      "name": "totalSupply",
      "outputs": [
        {
          "internalType": "uint256",
          "name": "",
          "type": "uint256"
        }
      ],
      "stateMutability": "view",
      "type": "function"
    },
    {
      "inputs": [
        {
          "internalType": "address",
          "name": "from",
          "type": "address"
        },
        {
          "internalType": "address",
          "name": "to",
          "type": "address"
        },
        {
          "internalType": "uint256",
          "name": "tokenId",
          "type": "uint256"
        }
      ],
      "name": "transferFrom",
      "outputs": [],
      "stateMutability": "nonpayable",
      "type": "function"
    },
    {
      "inputs": [
        {
          "internalType": "address",
          "name": "newOwner",
          "type": "address"
        }
      ],
      "name": "transferOwnership",
      "outputs": [],
      "stateMutability": "nonpayable",
      "type": "function"
    },
    {
      "stateMutability": "payable",
      "type": "receive"
    },
    {
      "inputs": [
        {
          "internalType": "uint256",
          "name": "_tokenId",
          "type": "uint256"
        }
      ],
      "name": "getTokenSellData",
      "outputs": [
        {
          "components": [
            {
              "internalType": "address",
              "name": "tokenOwner",
              "type": "address"
            },
            {
              "internalType": "uint256",
              "name": "tokenId",
              "type": "uint256"
            },
            {
              "internalType": "uint256",
              "name": "tokenSalePrice",
              "type": "uint256"
            }
          ],
          "internalType": "struct Exchange.TokenSeller",
          "name": "",
          "type": "tuple"
        }
      ],
      "stateMutability": "view",
      "type": "function"
    },
    {
      "inputs": [
        {
          "internalType": "string",
          "name": "_tokenUri",
          "type": "string"
        }
      ],
      "name": "mintNFT",
      "outputs": [],
      "stateMutability": "payable",
      "type": "function"
    },
    {
      "inputs": [
        {
          "internalType": "uint256",
          "name": "_tokenId",
          "type": "uint256"
        },
        {
          "internalType": "uint256",
          "name": "_sellPrice",
          "type": "uint256"
        }
      ],
      "name": "sellNFT",
      "outputs": [],
      "stateMutability": "nonpayable",
      "type": "function"
    },
    {
      "inputs": [
        {
          "internalType": "uint256",
          "name": "_tokenId",
          "type": "uint256"
        }
      ],
      "name": "getTokenBack",
      "outputs": [],
      "stateMutability": "nonpayable",
      "type": "function"
    },
    {
      "inputs": [
        {
          "internalType": "uint256",
          "name": "_tokenId",
          "type": "uint256"
        }
      ],
      "name": "buyToken",
      "outputs": [],
      "stateMutability": "payable",
      "type": "function"
    },
    {
      "inputs": [],
      "name": "payContract",
      "outputs": [],
      "stateMutability": "payable",
      "type": "function"
    },
    {
      "inputs": [],
      "name": "withdrawAll",
      "outputs": [],
      "stateMutability": "nonpayable",
      "type": "function"
    }
  ],
  "bytecode": "0x60806040523480156200001157600080fd5b506040518060400160405280600781526020017f44656c6761646f000000000000000000000000000000000000000000000000008152506040518060400160405280600481526020017f44454c4700000000000000000000000000000000000000000000000000000000815250816000908051906020019062000096929190620001a6565b508060019080519060200190620000af929190620001a6565b505050620000d2620000c6620000d860201b60201c565b620000e060201b60201c565b620002bb565b600033905090565b6000600b60009054906101000a900473ffffffffffffffffffffffffffffffffffffffff16905081600b60006101000a81548173ffffffffffffffffffffffffffffffffffffffff021916908373ffffffffffffffffffffffffffffffffffffffff1602179055508173ffffffffffffffffffffffffffffffffffffffff168173ffffffffffffffffffffffffffffffffffffffff167f8be0079c531659141344cd1fd0a4f28419497f9722a3daafe3b4186f6b6457e060405160405180910390a35050565b828054620001b49062000256565b90600052602060002090601f016020900481019282620001d8576000855562000224565b82601f10620001f357805160ff191683800117855562000224565b8280016001018555821562000224579182015b828111156200022357825182559160200191906001019062000206565b5b50905062000233919062000237565b5090565b5b808211156200025257600081600090555060010162000238565b5090565b600060028204905060018216806200026f57607f821691505b602082108114156200028657620002856200028c565b5b50919050565b7f4e487b7100000000000000000000000000000000000000000000000000000000600052602260045260246000fd5b61498980620002cb6000396000f3fe6080604052600436106101c65760003560e01c806370a08231116100f7578063a22cb46511610095578063e985e9c511610064578063e985e9c514610671578063ecb0b862146106ae578063f2fde38b146106b8578063fb37e883146106e1576101cd565b8063a22cb465146105b7578063a2309ff8146105e0578063b88d4fde1461060b578063c87b56dd14610634576101cd565b806386917aec116100d157806386917aec1461050f5780638da5cb5b1461053857806391a48a1e1461056357806395d89b411461058c576101cd565b806370a08231146104a4578063715018a6146104e1578063853828b6146104f8576101cd565b806323b872dd1161016457806342842e0e1161013e57806342842e0e146103c45780634f6ccce7146103ed5780636059eae11461042a5780636352211e14610467576101cd565b806323b872dd146103425780632d296bf11461036b5780632f745c5914610387576101cd565b8063095ea7b3116101a0578063095ea7b314610274578063150b7a021461029d57806318160ddd146102da5780631dadadd814610305576101cd565b806301ffc9a7146101cf57806306fdde031461020c578063081812fc14610237576101cd565b366101cd57005b005b3480156101db57600080fd5b506101f660048036038101906101f19190613248565b6106fd565b6040516102039190613959565b60405180910390f35b34801561021857600080fd5b5061022161070f565b60405161022e919061398f565b60405180910390f35b34801561024357600080fd5b5061025e600480360381019061025991906132eb565b6107a1565b60405161026b91906138bb565b60405180910390f35b34801561028057600080fd5b5061029b60048036038101906102969190613208565b610826565b005b3480156102a957600080fd5b506102c460048036038101906102bf9190613145565b61093e565b6040516102d19190613974565b60405180910390f35b3480156102e657600080fd5b506102ef610952565b6040516102fc9190613d2c565b60405180910390f35b34801561031157600080fd5b5061032c600480360381019061032791906132eb565b61095f565b6040516103399190613d11565b60405180910390f35b34801561034e57600080fd5b50610369600480360381019061036491906130f2565b6109f6565b005b610385600480360381019061038091906132eb565b610a56565b005b34801561039357600080fd5b506103ae60048036038101906103a99190613208565b610c55565b6040516103bb9190613d2c565b60405180910390f35b3480156103d057600080fd5b506103eb60048036038101906103e691906130f2565b610cfa565b005b3480156103f957600080fd5b50610414600480360381019061040f91906132eb565b610d1a565b6040516104219190613d2c565b60405180910390f35b34801561043657600080fd5b50610451600480360381019061044c91906132a2565b610d8b565b60405161045e9190613959565b60405180910390f35b34801561047357600080fd5b5061048e600480360381019061048991906132eb565b610dc0565b60405161049b91906138bb565b60405180910390f35b3480156104b057600080fd5b506104cb60048036038101906104c69190613085565b610e72565b6040516104d89190613d2c565b60405180910390f35b3480156104ed57600080fd5b506104f6610f2a565b005b34801561050457600080fd5b5061050d610fb2565b005b34801561051b57600080fd5b50610536600480360381019061053191906132eb565b6110ea565b005b34801561054457600080fd5b5061054d611253565b60405161055a91906138bb565b60405180910390f35b34801561056f57600080fd5b5061058a60048036038101906105859190613318565b61127d565b005b34801561059857600080fd5b506105a16113c6565b6040516105ae919061398f565b60405180910390f35b3480156105c357600080fd5b506105de60048036038101906105d991906131c8565b611458565b005b3480156105ec57600080fd5b506105f56115d9565b6040516106029190613d2c565b60405180910390f35b34801561061757600080fd5b50610632600480360381019061062d9190613145565b6115e3565b005b34801561064057600080fd5b5061065b600480360381019061065691906132eb565b611645565b604051610668919061398f565b60405180910390f35b34801561067d57600080fd5b50610698600480360381019061069391906130b2565b611657565b6040516106a59190613959565b60405180910390f35b6106b66116eb565b005b3480156106c457600080fd5b506106df60048036038101906106da9190613085565b6117e8565b005b6106fb60048036038101906106f691906132a2565b6118e0565b005b600061070882611942565b9050919050565b60606000805461071e90613f8d565b80601f016020809104026020016040519081016040528092919081815260200182805461074a90613f8d565b80156107975780601f1061076c57610100808354040283529160200191610797565b820191906000526020600020905b81548152906001019060200180831161077a57829003601f168201915b5050505050905090565b60006107ac826119bc565b6107eb576040517f08c379a00000000000000000000000000000000000000000000000000000000081526004016107e290613c11565b60405180910390fd5b6004600083815260200190815260200160002060009054906101000a900473ffffffffffffffffffffffffffffffffffffffff169050919050565b600061083182610dc0565b90508073ffffffffffffffffffffffffffffffffffffffff168373ffffffffffffffffffffffffffffffffffffffff1614156108a2576040517f08c379a000000000000000000000000000000000000000000000000000000000815260040161089990613cb1565b60405180910390fd5b8073ffffffffffffffffffffffffffffffffffffffff166108c1611a28565b73ffffffffffffffffffffffffffffffffffffffff1614806108f057506108ef816108ea611a28565b611657565b5b61092f576040517f08c379a000000000000000000000000000000000000000000000000000000000815260040161092690613b31565b60405180910390fd5b6109398383611a30565b505050565b600063150b7a0260e01b9050949350505050565b6000600880549050905090565b610967612e62565b600e60008381526020019081526020016000206040518060600160405290816000820160009054906101000a900473ffffffffffffffffffffffffffffffffffffffff1673ffffffffffffffffffffffffffffffffffffffff1673ffffffffffffffffffffffffffffffffffffffff168152602001600182015481526020016002820154815250509050919050565b610a07610a01611a28565b82611ae9565b610a46576040517f08c379a0000000000000000000000000000000000000000000000000000000008152600401610a3d90613cd1565b60405180910390fd5b610a51838383611bc7565b505050565b6000610a618261095f565b90506000816000015190508073ffffffffffffffffffffffffffffffffffffffff163373ffffffffffffffffffffffffffffffffffffffff161415610adb576040517f08c379a0000000000000000000000000000000000000000000000000000000008152600401610ad2906139f1565b60405180910390fd5b600082604001519050803414610b26576040517f08c379a0000000000000000000000000000000000000000000000000000000008152600401610b1d90613bb1565b60405180910390fd5b610b2e6116eb565b3073ffffffffffffffffffffffffffffffffffffffff166342842e0e3033876040518463ffffffff1660e01b8152600401610b6b939291906138d6565b600060405180830381600087803b158015610b8557600080fd5b505af1158015610b99573d6000803e3d6000fd5b505050508173ffffffffffffffffffffffffffffffffffffffff163373ffffffffffffffffffffffffffffffffffffffff16857fd91441965b0110130bb2e0b9e48dcd226af1ee12051df89b6e9e61b477213e4460405160405180910390a4610c028282611e23565b600e6000858152602001908152602001600020600080820160006101000a81549073ffffffffffffffffffffffffffffffffffffffff021916905560018201600090556002820160009055505050505050565b6000610c6083610e72565b8210610ca1576040517f08c379a0000000000000000000000000000000000000000000000000000000008152600401610c9890613a11565b60405180910390fd5b600660008473ffffffffffffffffffffffffffffffffffffffff1673ffffffffffffffffffffffffffffffffffffffff168152602001908152602001600020600083815260200190815260200160002054905092915050565b610d15838383604051806020016040528060008152506115e3565b505050565b6000610d24610952565b8210610d65576040517f08c379a0000000000000000000000000000000000000000000000000000000008152600401610d5c90613cf1565b60405180910390fd5b60088281548110610d7957610d78614126565b5b90600052602060002001549050919050565b6000600d82604051610d9d919061386b565b908152602001604051809103902060009054906101000a900460ff169050919050565b6000806002600084815260200190815260200160002060009054906101000a900473ffffffffffffffffffffffffffffffffffffffff169050600073ffffffffffffffffffffffffffffffffffffffff168173ffffffffffffffffffffffffffffffffffffffff161415610e69576040517f08c379a0000000000000000000000000000000000000000000000000000000008152600401610e6090613b71565b60405180910390fd5b80915050919050565b60008073ffffffffffffffffffffffffffffffffffffffff168273ffffffffffffffffffffffffffffffffffffffff161415610ee3576040517f08c379a0000000000000000000000000000000000000000000000000000000008152600401610eda90613b51565b60405180910390fd5b600360008373ffffffffffffffffffffffffffffffffffffffff1673ffffffffffffffffffffffffffffffffffffffff168152602001908152602001600020549050919050565b610f32611a28565b73ffffffffffffffffffffffffffffffffffffffff16610f50611253565b73ffffffffffffffffffffffffffffffffffffffff1614610fa6576040517f08c379a0000000000000000000000000000000000000000000000000000000008152600401610f9d90613c31565b60405180910390fd5b610fb06000611eea565b565b610fba611a28565b73ffffffffffffffffffffffffffffffffffffffff16610fd8611253565b73ffffffffffffffffffffffffffffffffffffffff161461102e576040517f08c379a000000000000000000000000000000000000000000000000000000000815260040161102590613c31565b60405180910390fd5b6000611038611253565b905060008173ffffffffffffffffffffffffffffffffffffffff1647604051611060906138a6565b60006040518083038185875af1925050503d806000811461109d576040519150601f19603f3d011682016040523d82523d6000602084013e6110a2565b606091505b50509050806110e6576040517f08c379a00000000000000000000000000000000000000000000000000000000081526004016110dd906139b1565b60405180910390fd5b5050565b6000600e600083815260200190815260200160002060000160009054906101000a900473ffffffffffffffffffffffffffffffffffffffff1690508073ffffffffffffffffffffffffffffffffffffffff163373ffffffffffffffffffffffffffffffffffffffff1614611193576040517f08c379a000000000000000000000000000000000000000000000000000000000815260040161118a90613a71565b60405180910390fd5b3073ffffffffffffffffffffffffffffffffffffffff166342842e0e3033856040518463ffffffff1660e01b81526004016111d0939291906138d6565b600060405180830381600087803b1580156111ea57600080fd5b505af11580156111fe573d6000803e3d6000fd5b50505050600e6000838152602001908152602001600020600080820160006101000a81549073ffffffffffffffffffffffffffffffffffffffff02191690556001820160009055600282016000905550505050565b6000600b60009054906101000a900473ffffffffffffffffffffffffffffffffffffffff16905090565b6501d1a94a20008110156112c6576040517f08c379a00000000000000000000000000000000000000000000000000000000081526004016112bd90613c51565b60405180910390fd5b6112d1333084610cfa565b813373ffffffffffffffffffffffffffffffffffffffff167fd0fec0f89ba23d25a55a8184b71166e8f9df0a610a4dcb1d12d1471bb2c7b50c836040516113189190613d2c565b60405180910390a360405180606001604052803373ffffffffffffffffffffffffffffffffffffffff16815260200183815260200182815250600e600084815260200190815260200160002060008201518160000160006101000a81548173ffffffffffffffffffffffffffffffffffffffff021916908373ffffffffffffffffffffffffffffffffffffffff16021790555060208201518160010155604082015181600201559050505050565b6060600180546113d590613f8d565b80601f016020809104026020016040519081016040528092919081815260200182805461140190613f8d565b801561144e5780601f106114235761010080835404028352916020019161144e565b820191906000526020600020905b81548152906001019060200180831161143157829003601f168201915b5050505050905090565b611460611a28565b73ffffffffffffffffffffffffffffffffffffffff168273ffffffffffffffffffffffffffffffffffffffff1614156114ce576040517f08c379a00000000000000000000000000000000000000000000000000000000081526004016114c590613af1565b60405180910390fd5b80600560006114db611a28565b73ffffffffffffffffffffffffffffffffffffffff1673ffffffffffffffffffffffffffffffffffffffff16815260200190815260200160002060008473ffffffffffffffffffffffffffffffffffffffff1673ffffffffffffffffffffffffffffffffffffffff16815260200190815260200160002060006101000a81548160ff0219169083151502179055508173ffffffffffffffffffffffffffffffffffffffff16611588611a28565b73ffffffffffffffffffffffffffffffffffffffff167f17307eab39ab6107e8899845ad3d59bd9653f200f220920489ca2b5937696c31836040516115cd9190613959565b60405180910390a35050565b6000600c54905090565b6115f46115ee611a28565b83611ae9565b611633576040517f08c379a000000000000000000000000000000000000000000000000000000000815260040161162a90613cd1565b60405180910390fd5b61163f84848484611fb0565b50505050565b60606116508261200c565b9050919050565b6000600560008473ffffffffffffffffffffffffffffffffffffffff1673ffffffffffffffffffffffffffffffffffffffff16815260200190815260200160002060008373ffffffffffffffffffffffffffffffffffffffff1673ffffffffffffffffffffffffffffffffffffffff16815260200190815260200160002060009054906101000a900460ff16905092915050565b60003073ffffffffffffffffffffffffffffffffffffffff1634604051611711906138a6565b60006040518083038185875af1925050503d806000811461174e576040519150601f19603f3d011682016040523d82523d6000602084013e611753565b606091505b5050905080611797576040517f08c379a000000000000000000000000000000000000000000000000000000000815260040161178e906139b1565b60405180910390fd5b3373ffffffffffffffffffffffffffffffffffffffff167fa419615bc8fda4c87663805ee2a3597a6d71c1d476911d9892f340d965bc7bf1346040516117dd9190613d2c565b60405180910390a250565b6117f0611a28565b73ffffffffffffffffffffffffffffffffffffffff1661180e611253565b73ffffffffffffffffffffffffffffffffffffffff1614611864576040517f08c379a000000000000000000000000000000000000000000000000000000000815260040161185b90613c31565b60405180910390fd5b600073ffffffffffffffffffffffffffffffffffffffff168173ffffffffffffffffffffffffffffffffffffffff1614156118d4576040517f08c379a00000000000000000000000000000000000000000000000000000000081526004016118cb90613a51565b60405180910390fd5b6118dd81611eea565b50565b64e8d4a510003414611927576040517f08c379a000000000000000000000000000000000000000000000000000000000815260040161191e906139d1565b60405180910390fd5b60006119328261215e565b905061193e818361223d565b5050565b60007f780e9d63000000000000000000000000000000000000000000000000000000007bffffffffffffffffffffffffffffffffffffffffffffffffffffffff1916827bffffffffffffffffffffffffffffffffffffffffffffffffffffffff191614806119b557506119b4826122b1565b5b9050919050565b60008073ffffffffffffffffffffffffffffffffffffffff166002600084815260200190815260200160002060009054906101000a900473ffffffffffffffffffffffffffffffffffffffff1673ffffffffffffffffffffffffffffffffffffffff1614159050919050565b600033905090565b816004600083815260200190815260200160002060006101000a81548173ffffffffffffffffffffffffffffffffffffffff021916908373ffffffffffffffffffffffffffffffffffffffff160217905550808273ffffffffffffffffffffffffffffffffffffffff16611aa383610dc0565b73ffffffffffffffffffffffffffffffffffffffff167f8c5be1e5ebec7d5bd14f71427d1e84f3dd0314c0f7b2291e5b200ac8c7c3b92560405160405180910390a45050565b6000611af4826119bc565b611b33576040517f08c379a0000000000000000000000000000000000000000000000000000000008152600401611b2a90613b11565b60405180910390fd5b6000611b3e83610dc0565b90508073ffffffffffffffffffffffffffffffffffffffff168473ffffffffffffffffffffffffffffffffffffffff161480611bad57508373ffffffffffffffffffffffffffffffffffffffff16611b95846107a1565b73ffffffffffffffffffffffffffffffffffffffff16145b80611bbe5750611bbd8185611657565b5b91505092915050565b8273ffffffffffffffffffffffffffffffffffffffff16611be782610dc0565b73ffffffffffffffffffffffffffffffffffffffff1614611c3d576040517f08c379a0000000000000000000000000000000000000000000000000000000008152600401611c3490613c71565b60405180910390fd5b600073ffffffffffffffffffffffffffffffffffffffff168273ffffffffffffffffffffffffffffffffffffffff161415611cad576040517f08c379a0000000000000000000000000000000000000000000000000000000008152600401611ca490613ad1565b60405180910390fd5b611cb8838383612393565b611cc3600082611a30565b6001600360008573ffffffffffffffffffffffffffffffffffffffff1673ffffffffffffffffffffffffffffffffffffffff1681526020019081526020016000206000828254611d139190613ea3565b925050819055506001600360008473ffffffffffffffffffffffffffffffffffffffff1673ffffffffffffffffffffffffffffffffffffffff1681526020019081526020016000206000828254611d6a9190613e1c565b92505081905550816002600083815260200190815260200160002060006101000a81548173ffffffffffffffffffffffffffffffffffffffff021916908373ffffffffffffffffffffffffffffffffffffffff160217905550808273ffffffffffffffffffffffffffffffffffffffff168473ffffffffffffffffffffffffffffffffffffffff167fddf252ad1be2c89b69c2b068fc378daa952ba7f163c4a11628f55a4df523b3ef60405160405180910390a4505050565b600064e8d4a5100082611e369190613ea3565b905060008373ffffffffffffffffffffffffffffffffffffffff1682604051611e5e906138a6565b60006040518083038185875af1925050503d8060008114611e9b576040519150601f19603f3d011682016040523d82523d6000602084013e611ea0565b606091505b5050905080611ee4576040517f08c379a0000000000000000000000000000000000000000000000000000000008152600401611edb906139b1565b60405180910390fd5b50505050565b6000600b60009054906101000a900473ffffffffffffffffffffffffffffffffffffffff16905081600b60006101000a81548173ffffffffffffffffffffffffffffffffffffffff021916908373ffffffffffffffffffffffffffffffffffffffff1602179055508173ffffffffffffffffffffffffffffffffffffffff168173ffffffffffffffffffffffffffffffffffffffff167f8be0079c531659141344cd1fd0a4f28419497f9722a3daafe3b4186f6b6457e060405160405180910390a35050565b611fbb848484611bc7565b611fc7848484846123a3565b612006576040517f08c379a0000000000000000000000000000000000000000000000000000000008152600401611ffd90613a31565b60405180910390fd5b50505050565b6060612017826119bc565b612056576040517f08c379a000000000000000000000000000000000000000000000000000000000815260040161204d90613bf1565b60405180910390fd5b6000600a6000848152602001908152602001600020805461207690613f8d565b80601f01602080910402602001604051908101604052809291908181526020018280546120a290613f8d565b80156120ef5780601f106120c4576101008083540402835291602001916120ef565b820191906000526020600020905b8154815290600101906020018083116120d257829003601f168201915b50505050509050600061210061253a565b9050600081511415612116578192505050612159565b60008251111561214b578082604051602001612133929190613882565b60405160208183030381529060405292505050612159565b61215484612577565b925050505b919050565b6000600d82604051612170919061386b565b908152602001604051809103902060009054906101000a900460ff16156121cc576040517f08c379a00000000000000000000000000000000000000000000000000000000081526004016121c390613ab1565b60405180910390fd5b6121d833600c5461261e565b6001600d836040516121ea919061386b565b908152602001604051809103902060006101000a81548160ff021916908315150217905550600c600081548092919061222290613ff0565b91905055506001600c546122369190613ea3565b9050919050565b612246826119bc565b612285576040517f08c379a000000000000000000000000000000000000000000000000000000000815260040161227c90613b91565b60405180910390fd5b80600a600084815260200190815260200160002090805190602001906122ac929190612e99565b505050565b60007f80ac58cd000000000000000000000000000000000000000000000000000000007bffffffffffffffffffffffffffffffffffffffffffffffffffffffff1916827bffffffffffffffffffffffffffffffffffffffffffffffffffffffff1916148061237c57507f5b5e139f000000000000000000000000000000000000000000000000000000007bffffffffffffffffffffffffffffffffffffffffffffffffffffffff1916827bffffffffffffffffffffffffffffffffffffffffffffffffffffffff1916145b8061238c575061238b8261263c565b5b9050919050565b61239e8383836126a6565b505050565b60006123c48473ffffffffffffffffffffffffffffffffffffffff166127ba565b1561252d578373ffffffffffffffffffffffffffffffffffffffff1663150b7a026123ed611a28565b8786866040518563ffffffff1660e01b815260040161240f949392919061390d565b602060405180830381600087803b15801561242957600080fd5b505af192505050801561245a57506040513d601f19601f820116820180604052508101906124579190613275565b60015b6124dd573d806000811461248a576040519150601f19603f3d011682016040523d82523d6000602084013e61248f565b606091505b506000815114156124d5576040517f08c379a00000000000000000000000000000000000000000000000000000000081526004016124cc90613a31565b60405180910390fd5b805181602001fd5b63150b7a0260e01b7bffffffffffffffffffffffffffffffffffffffffffffffffffffffff1916817bffffffffffffffffffffffffffffffffffffffffffffffffffffffff191614915050612532565b600190505b949350505050565b60606040518060400160405280601581526020017f68747470733a2f2f697066732e696f2f697066732f0000000000000000000000815250905090565b6060612582826119bc565b6125c1576040517f08c379a00000000000000000000000000000000000000000000000000000000081526004016125b890613c91565b60405180910390fd5b60006125cb61253a565b905060008151116125eb5760405180602001604052806000815250612616565b806125f5846127cd565b604051602001612606929190613882565b6040516020818303038152906040525b915050919050565b61263882826040518060200160405280600081525061292e565b5050565b60007f01ffc9a7000000000000000000000000000000000000000000000000000000007bffffffffffffffffffffffffffffffffffffffffffffffffffffffff1916827bffffffffffffffffffffffffffffffffffffffffffffffffffffffff1916149050919050565b6126b1838383612989565b600073ffffffffffffffffffffffffffffffffffffffff168373ffffffffffffffffffffffffffffffffffffffff1614156126f4576126ef8161298e565b612733565b8173ffffffffffffffffffffffffffffffffffffffff168373ffffffffffffffffffffffffffffffffffffffff16146127325761273183826129d7565b5b5b600073ffffffffffffffffffffffffffffffffffffffff168273ffffffffffffffffffffffffffffffffffffffff1614156127765761277181612b44565b6127b5565b8273ffffffffffffffffffffffffffffffffffffffff168273ffffffffffffffffffffffffffffffffffffffff16146127b4576127b38282612c15565b5b5b505050565b600080823b905060008111915050919050565b60606000821415612815576040518060400160405280600181526020017f30000000000000000000000000000000000000000000000000000000000000008152509050612929565b600082905060005b6000821461284757808061283090613ff0565b915050600a826128409190613e72565b915061281d565b60008167ffffffffffffffff81111561286357612862614155565b5b6040519080825280601f01601f1916602001820160405280156128955781602001600182028036833780820191505090505b5090505b60008514612922576001826128ae9190613ea3565b9150600a856128bd9190614039565b60306128c99190613e1c565b60f81b8183815181106128df576128de614126565b5b60200101907effffffffffffffffffffffffffffffffffffffffffffffffffffffffffffff1916908160001a905350600a8561291b9190613e72565b9450612899565b8093505050505b919050565b6129388383612c94565b61294560008484846123a3565b612984576040517f08c379a000000000000000000000000000000000000000000000000000000000815260040161297b90613a31565b60405180910390fd5b505050565b505050565b6008805490506009600083815260200190815260200160002081905550600881908060018154018082558091505060019003906000526020600020016000909190919091505550565b600060016129e484610e72565b6129ee9190613ea3565b9050600060076000848152602001908152602001600020549050818114612ad3576000600660008673ffffffffffffffffffffffffffffffffffffffff1673ffffffffffffffffffffffffffffffffffffffff168152602001908152602001600020600084815260200190815260200160002054905080600660008773ffffffffffffffffffffffffffffffffffffffff1673ffffffffffffffffffffffffffffffffffffffff168152602001908152602001600020600084815260200190815260200160002081905550816007600083815260200190815260200160002081905550505b6007600084815260200190815260200160002060009055600660008573ffffffffffffffffffffffffffffffffffffffff1673ffffffffffffffffffffffffffffffffffffffff16815260200190815260200160002060008381526020019081526020016000206000905550505050565b60006001600880549050612b589190613ea3565b9050600060096000848152602001908152602001600020549050600060088381548110612b8857612b87614126565b5b906000526020600020015490508060088381548110612baa57612ba9614126565b5b906000526020600020018190555081600960008381526020019081526020016000208190555060096000858152602001908152602001600020600090556008805480612bf957612bf86140f7565b5b6001900381819060005260206000200160009055905550505050565b6000612c2083610e72565b905081600660008573ffffffffffffffffffffffffffffffffffffffff1673ffffffffffffffffffffffffffffffffffffffff168152602001908152602001600020600083815260200190815260200160002081905550806007600084815260200190815260200160002081905550505050565b600073ffffffffffffffffffffffffffffffffffffffff168273ffffffffffffffffffffffffffffffffffffffff161415612d04576040517f08c379a0000000000000000000000000000000000000000000000000000000008152600401612cfb90613bd1565b60405180910390fd5b612d0d816119bc565b15612d4d576040517f08c379a0000000000000000000000000000000000000000000000000000000008152600401612d4490613a91565b60405180910390fd5b612d5960008383612393565b6001600360008473ffffffffffffffffffffffffffffffffffffffff1673ffffffffffffffffffffffffffffffffffffffff1681526020019081526020016000206000828254612da99190613e1c565b92505081905550816002600083815260200190815260200160002060006101000a81548173ffffffffffffffffffffffffffffffffffffffff021916908373ffffffffffffffffffffffffffffffffffffffff160217905550808273ffffffffffffffffffffffffffffffffffffffff16600073ffffffffffffffffffffffffffffffffffffffff167fddf252ad1be2c89b69c2b068fc378daa952ba7f163c4a11628f55a4df523b3ef60405160405180910390a45050565b6040518060600160405280600073ffffffffffffffffffffffffffffffffffffffff16815260200160008152602001600081525090565b828054612ea590613f8d565b90600052602060002090601f016020900481019282612ec75760008555612f0e565b82601f10612ee057805160ff1916838001178555612f0e565b82800160010185558215612f0e579182015b82811115612f0d578251825591602001919060010190612ef2565b5b509050612f1b9190612f1f565b5090565b5b80821115612f38576000816000905550600101612f20565b5090565b6000612f4f612f4a84613d6c565b613d47565b905082815260208101848484011115612f6b57612f6a614189565b5b612f76848285613f4b565b509392505050565b6000612f91612f8c84613d9d565b613d47565b905082815260208101848484011115612fad57612fac614189565b5b612fb8848285613f4b565b509392505050565b600081359050612fcf816148f7565b92915050565b600081359050612fe48161490e565b92915050565b600081359050612ff981614925565b92915050565b60008151905061300e81614925565b92915050565b600082601f83011261302957613028614184565b5b8135613039848260208601612f3c565b91505092915050565b600082601f83011261305757613056614184565b5b8135613067848260208601612f7e565b91505092915050565b60008135905061307f8161493c565b92915050565b60006020828403121561309b5761309a614193565b5b60006130a984828501612fc0565b91505092915050565b600080604083850312156130c9576130c8614193565b5b60006130d785828601612fc0565b92505060206130e885828601612fc0565b9150509250929050565b60008060006060848603121561310b5761310a614193565b5b600061311986828701612fc0565b935050602061312a86828701612fc0565b925050604061313b86828701613070565b9150509250925092565b6000806000806080858703121561315f5761315e614193565b5b600061316d87828801612fc0565b945050602061317e87828801612fc0565b935050604061318f87828801613070565b925050606085013567ffffffffffffffff8111156131b0576131af61418e565b5b6131bc87828801613014565b91505092959194509250565b600080604083850312156131df576131de614193565b5b60006131ed85828601612fc0565b92505060206131fe85828601612fd5565b9150509250929050565b6000806040838503121561321f5761321e614193565b5b600061322d85828601612fc0565b925050602061323e85828601613070565b9150509250929050565b60006020828403121561325e5761325d614193565b5b600061326c84828501612fea565b91505092915050565b60006020828403121561328b5761328a614193565b5b600061329984828501612fff565b91505092915050565b6000602082840312156132b8576132b7614193565b5b600082013567ffffffffffffffff8111156132d6576132d561418e565b5b6132e284828501613042565b91505092915050565b60006020828403121561330157613300614193565b5b600061330f84828501613070565b91505092915050565b6000806040838503121561332f5761332e614193565b5b600061333d85828601613070565b925050602061334e85828601613070565b9150509250929050565b61336181613ed7565b82525050565b61337081613ed7565b82525050565b61337f81613ee9565b82525050565b61338e81613ef5565b82525050565b600061339f82613dce565b6133a98185613de4565b93506133b9818560208601613f5a565b6133c281614198565b840191505092915050565b60006133d882613dd9565b6133e28185613e00565b93506133f2818560208601613f5a565b6133fb81614198565b840191505092915050565b600061341182613dd9565b61341b8185613e11565b935061342b818560208601613f5a565b80840191505092915050565b6000613444601383613e00565b915061344f826141a9565b602082019050919050565b6000613467601983613e00565b9150613472826141d2565b602082019050919050565b600061348a602283613e00565b9150613495826141fb565b604082019050919050565b60006134ad602b83613e00565b91506134b88261424a565b604082019050919050565b60006134d0603283613e00565b91506134db82614299565b604082019050919050565b60006134f3602683613e00565b91506134fe826142e8565b604082019050919050565b6000613516602483613e00565b915061352182614337565b604082019050919050565b6000613539601c83613e00565b915061354482614386565b602082019050919050565b600061355c601383613e00565b9150613567826143af565b602082019050919050565b600061357f602483613e00565b915061358a826143d8565b604082019050919050565b60006135a2601983613e00565b91506135ad82614427565b602082019050919050565b60006135c5602c83613e00565b91506135d082614450565b604082019050919050565b60006135e8603883613e00565b91506135f38261449f565b604082019050919050565b600061360b602a83613e00565b9150613616826144ee565b604082019050919050565b600061362e602983613e00565b91506136398261453d565b604082019050919050565b6000613651602e83613e00565b915061365c8261458c565b604082019050919050565b6000613674603083613e00565b915061367f826145db565b604082019050919050565b6000613697602083613e00565b91506136a28261462a565b602082019050919050565b60006136ba603183613e00565b91506136c582614653565b604082019050919050565b60006136dd602c83613e00565b91506136e8826146a2565b604082019050919050565b6000613700602083613e00565b915061370b826146f1565b602082019050919050565b6000613723603a83613e00565b915061372e8261471a565b604082019050919050565b6000613746602983613e00565b915061375182614769565b604082019050919050565b6000613769602f83613e00565b9150613774826147b8565b604082019050919050565b600061378c602183613e00565b915061379782614807565b604082019050919050565b60006137af600083613df5565b91506137ba82614856565b600082019050919050565b60006137d2603183613e00565b91506137dd82614859565b604082019050919050565b60006137f5602c83613e00565b9150613800826148a8565b604082019050919050565b6060820160008201516138216000850182613358565b506020820151613834602085018261384d565b506040820151613847604085018261384d565b50505050565b61385681613f41565b82525050565b61386581613f41565b82525050565b60006138778284613406565b915081905092915050565b600061388e8285613406565b915061389a8284613406565b91508190509392505050565b60006138b1826137a2565b9150819050919050565b60006020820190506138d06000830184613367565b92915050565b60006060820190506138eb6000830186613367565b6138f86020830185613367565b613905604083018461385c565b949350505050565b60006080820190506139226000830187613367565b61392f6020830186613367565b61393c604083018561385c565b818103606083015261394e8184613394565b905095945050505050565b600060208201905061396e6000830184613376565b92915050565b60006020820190506139896000830184613385565b92915050565b600060208201905081810360008301526139a981846133cd565b905092915050565b600060208201905081810360008301526139ca81613437565b9050919050565b600060208201905081810360008301526139ea8161345a565b9050919050565b60006020820190508181036000830152613a0a8161347d565b9050919050565b60006020820190508181036000830152613a2a816134a0565b9050919050565b60006020820190508181036000830152613a4a816134c3565b9050919050565b60006020820190508181036000830152613a6a816134e6565b9050919050565b60006020820190508181036000830152613a8a81613509565b9050919050565b60006020820190508181036000830152613aaa8161352c565b9050919050565b60006020820190508181036000830152613aca8161354f565b9050919050565b60006020820190508181036000830152613aea81613572565b9050919050565b60006020820190508181036000830152613b0a81613595565b9050919050565b60006020820190508181036000830152613b2a816135b8565b9050919050565b60006020820190508181036000830152613b4a816135db565b9050919050565b60006020820190508181036000830152613b6a816135fe565b9050919050565b60006020820190508181036000830152613b8a81613621565b9050919050565b60006020820190508181036000830152613baa81613644565b9050919050565b60006020820190508181036000830152613bca81613667565b9050919050565b60006020820190508181036000830152613bea8161368a565b9050919050565b60006020820190508181036000830152613c0a816136ad565b9050919050565b60006020820190508181036000830152613c2a816136d0565b9050919050565b60006020820190508181036000830152613c4a816136f3565b9050919050565b60006020820190508181036000830152613c6a81613716565b9050919050565b60006020820190508181036000830152613c8a81613739565b9050919050565b60006020820190508181036000830152613caa8161375c565b9050919050565b60006020820190508181036000830152613cca8161377f565b9050919050565b60006020820190508181036000830152613cea816137c5565b9050919050565b60006020820190508181036000830152613d0a816137e8565b9050919050565b6000606082019050613d26600083018461380b565b92915050565b6000602082019050613d41600083018461385c565b92915050565b6000613d51613d62565b9050613d5d8282613fbf565b919050565b6000604051905090565b600067ffffffffffffffff821115613d8757613d86614155565b5b613d9082614198565b9050602081019050919050565b600067ffffffffffffffff821115613db857613db7614155565b5b613dc182614198565b9050602081019050919050565b600081519050919050565b600081519050919050565b600082825260208201905092915050565b600081905092915050565b600082825260208201905092915050565b600081905092915050565b6000613e2782613f41565b9150613e3283613f41565b9250827fffffffffffffffffffffffffffffffffffffffffffffffffffffffffffffffff03821115613e6757613e6661406a565b5b828201905092915050565b6000613e7d82613f41565b9150613e8883613f41565b925082613e9857613e97614099565b5b828204905092915050565b6000613eae82613f41565b9150613eb983613f41565b925082821015613ecc57613ecb61406a565b5b828203905092915050565b6000613ee282613f21565b9050919050565b60008115159050919050565b60007fffffffff0000000000000000000000000000000000000000000000000000000082169050919050565b600073ffffffffffffffffffffffffffffffffffffffff82169050919050565b6000819050919050565b82818337600083830152505050565b60005b83811015613f78578082015181840152602081019050613f5d565b83811115613f87576000848401525b50505050565b60006002820490506001821680613fa557607f821691505b60208210811415613fb957613fb86140c8565b5b50919050565b613fc882614198565b810181811067ffffffffffffffff82111715613fe757613fe6614155565b5b80604052505050565b6000613ffb82613f41565b91507fffffffffffffffffffffffffffffffffffffffffffffffffffffffffffffffff82141561402e5761402d61406a565b5b600182019050919050565b600061404482613f41565b915061404f83613f41565b92508261405f5761405e614099565b5b828206905092915050565b7f4e487b7100000000000000000000000000000000000000000000000000000000600052601160045260246000fd5b7f4e487b7100000000000000000000000000000000000000000000000000000000600052601260045260246000fd5b7f4e487b7100000000000000000000000000000000000000000000000000000000600052602260045260246000fd5b7f4e487b7100000000000000000000000000000000000000000000000000000000600052603160045260246000fd5b7f4e487b7100000000000000000000000000000000000000000000000000000000600052603260045260246000fd5b7f4e487b7100000000000000000000000000000000000000000000000000000000600052604160045260246000fd5b600080fd5b600080fd5b600080fd5b600080fd5b6000601f19601f8301169050919050565b7f5472616e73616374696f6e206661696c65642e00000000000000000000000000600082015250565b7f416d6f756e742073656e74206d75737420626520316531322e00000000000000600082015250565b7f596f752063616e277420707572636861736520796f7572206f776e20746f6b6560008201527f6e21000000000000000000000000000000000000000000000000000000000000602082015250565b7f455243373231456e756d657261626c653a206f776e657220696e646578206f7560008201527f74206f6620626f756e6473000000000000000000000000000000000000000000602082015250565b7f4552433732313a207472616e7366657220746f206e6f6e20455243373231526560008201527f63656976657220696d706c656d656e7465720000000000000000000000000000602082015250565b7f4f776e61626c653a206e6577206f776e657220697320746865207a65726f206160008201527f6464726573730000000000000000000000000000000000000000000000000000602082015250565b7f596f7520617265206e6f7420746865206f776e6572206f66207468697320746f60008201527f6b656e2e00000000000000000000000000000000000000000000000000000000602082015250565b7f4552433732313a20746f6b656e20616c7265616479206d696e74656400000000600082015250565b7f4e465420616c7265616479206578697374732100000000000000000000000000600082015250565b7f4552433732313a207472616e7366657220746f20746865207a65726f2061646460008201527f7265737300000000000000000000000000000000000000000000000000000000602082015250565b7f4552433732313a20617070726f766520746f2063616c6c657200000000000000600082015250565b7f4552433732313a206f70657261746f7220717565727920666f72206e6f6e657860008201527f697374656e7420746f6b656e0000000000000000000000000000000000000000602082015250565b7f4552433732313a20617070726f76652063616c6c6572206973206e6f74206f7760008201527f6e6572206e6f7220617070726f76656420666f7220616c6c0000000000000000602082015250565b7f4552433732313a2062616c616e636520717565727920666f7220746865207a6560008201527f726f206164647265737300000000000000000000000000000000000000000000602082015250565b7f4552433732313a206f776e657220717565727920666f72206e6f6e657869737460008201527f656e7420746f6b656e0000000000000000000000000000000000000000000000602082015250565b7f45524337323155524953746f726167653a2055524920736574206f66206e6f6e60008201527f6578697374656e7420746f6b656e000000000000000000000000000000000000602082015250565b7f507572636861736520616d6f756e7420646f65736e277420657175616c20746860008201527f652073656c6c696e672070726963652e00000000000000000000000000000000602082015250565b7f4552433732313a206d696e7420746f20746865207a65726f2061646472657373600082015250565b7f45524337323155524953746f726167653a2055524920717565727920666f722060008201527f6e6f6e6578697374656e7420746f6b656e000000000000000000000000000000602082015250565b7f4552433732313a20617070726f76656420717565727920666f72206e6f6e657860008201527f697374656e7420746f6b656e0000000000000000000000000000000000000000602082015250565b7f4f776e61626c653a2063616c6c6572206973206e6f7420746865206f776e6572600082015250565b7f53616c65204572726f723a2053656c6c207072696365206d757374206265203260008201527f65313220283220737a61626f7329206f7220677265617465722e000000000000602082015250565b7f4552433732313a207472616e73666572206f6620746f6b656e2074686174206960008201527f73206e6f74206f776e0000000000000000000000000000000000000000000000602082015250565b7f4552433732314d657461646174613a2055524920717565727920666f72206e6f60008201527f6e6578697374656e7420746f6b656e0000000000000000000000000000000000602082015250565b7f4552433732313a20617070726f76616c20746f2063757272656e74206f776e6560008201527f7200000000000000000000000000000000000000000000000000000000000000602082015250565b50565b7f4552433732313a207472616e736665722063616c6c6572206973206e6f74206f60008201527f776e6572206e6f7220617070726f766564000000000000000000000000000000602082015250565b7f455243373231456e756d657261626c653a20676c6f62616c20696e646578206f60008201527f7574206f6620626f756e64730000000000000000000000000000000000000000602082015250565b61490081613ed7565b811461490b57600080fd5b50565b61491781613ee9565b811461492257600080fd5b50565b61492e81613ef5565b811461493957600080fd5b50565b61494581613f41565b811461495057600080fd5b5056fea2646970667358221220f78fa34c5f39263c70ff069bd383de00ad9802212ed74b6ce886aa607ff91d6064736f6c63430008060033",
  "immutableReferences": {},
  "source": "// SPDX-License-Identifier: MIT\npragma solidity ^0.8.0;\n\nimport \"@openzeppelin/contracts/token/ERC721/utils/ERC721Holder.sol\";\nimport \"./ColorMinter.sol\";\n\n/**\n * @title A DEX for ERC721 tokens (NFTs)\n * @author Adrian Delgado - https://github.com/adriandelgg\n * @dev To get all token IDs the exchange currently has for sale,\n * you have to use tokenOfOwnerByIndex() along with balanceOf()\n * in JS to enumerate through the array holding all the token IDs.\n */\n\ncontract Exchange is ColorMinter, ERC721Holder {\n    receive() external payable {}\n\n    fallback() external payable {}\n\n    event TokenPurchased(\n        uint256 indexed tokenId,\n        address indexed buyer,\n        address indexed seller\n    );\n\n    event TokenTransferredToExchange(\n        address indexed from,\n        uint256 indexed tokenId,\n        uint256 price\n    );\n\n    event ReceivedEther(address indexed from, uint256 amount);\n\n    /**\n     * @dev Used to keep track of who's selling the token & for how much.\n     * With this information, the DEX is able to pay the owner properly,\n     * receive the correct amount for it during a sale,\n     * and return the token to them if they wish to unlist it.\n     */\n    struct TokenSeller {\n        address tokenOwner;\n        uint256 tokenId;\n        uint256 tokenSalePrice;\n    }\n\n    // Mapping from token ID to token seller's info.\n    mapping(uint256 => TokenSeller) private _tokenInfo;\n\n    // Gets the token sell data from the mapping containing structs\n    function getTokenSellData(uint256 _tokenId)\n        public\n        view\n        returns (TokenSeller memory)\n    {\n        return _tokenInfo[_tokenId];\n    }\n\n    /**\n     * @dev Mints a new NFT & tethers a URI to it. Also accepts\n     * 1e12 ETH as payment for minting. URI must be only the IPFS hash\n     */\n    function mintNFT(string memory _tokenUri) public payable {\n        require(msg.value == 1e12, \"Amount sent must be 1e12.\");\n        uint256 tokenId = mint(_tokenUri);\n        _setTokenURI(tokenId, _tokenUri);\n    }\n\n    /**\n     * @dev Allows a user to sell their NFT to the DEX and also specify\n     * their sell price in wei. Checks to make sure the sell price is greater or equal\n     * to 2e12 because the DEX takes a 1e12 commission. Stores the listing info in a mapping\n     * that takes a token ID and returns a struct with the data.\n     */\n    function sellNFT(uint256 _tokenId, uint256 _sellPrice) public {\n        require(\n            _sellPrice >= 2e12,\n            \"Sale Error: Sell price must be 2e12 (2 szabos) or greater.\"\n        );\n        safeTransferFrom(msg.sender, address(this), _tokenId);\n\n        emit TokenTransferredToExchange(msg.sender, _tokenId, _sellPrice);\n\n        _tokenInfo[_tokenId] = TokenSeller(msg.sender, _tokenId, _sellPrice);\n    }\n\n    /**\n     * @dev Allows the seller of the token to withdraw their sales listing\n     * and get their NFT back to their wallet address. No charge or ether\n     * will be paid since you can only get the token back if it's unsold.\n     * Only gas fee. Removes the sale listing from the struct mapping.\n     */\n    function getTokenBack(uint256 _tokenId) external {\n        address tokenOwner = _tokenInfo[_tokenId].tokenOwner;\n        require(\n            msg.sender == tokenOwner,\n            \"You are not the owner of this token.\"\n        );\n        this.safeTransferFrom(address(this), msg.sender, _tokenId);\n        delete _tokenInfo[_tokenId];\n    }\n\n    /**\n     * @dev Lets a user buy the NFT from the DEX. Function verifies that the amount\n     * sent in wei is equal to that of the sale price. If it is, the contract\n     * will accept the ether then transfer the NFT to the buyer.\n     * After it's been transferred, the DEX then transfers the ether minus 1e12\n     * (1 szabo commission fee) to the original owner/seller of the NFT.\n     * Deletes the struct from the mapping after.\n     */\n    function buyToken(uint256 _tokenId) external payable {\n        TokenSeller memory tokenData = getTokenSellData(_tokenId);\n        address tokenOwner = tokenData.tokenOwner;\n        require(msg.sender != tokenOwner, \"You can't purchase your own token!\"); // Needs test\n        uint256 tokenSalePrice = tokenData.tokenSalePrice;\n        require(\n            msg.value == tokenSalePrice,\n            \"Purchase amount doesn't equal the selling price.\"\n        );\n        payContract(); // Test to see if this function is needed\n\n        this.safeTransferFrom(address(this), msg.sender, _tokenId);\n        emit TokenPurchased(_tokenId, msg.sender, address(tokenOwner));\n\n        // Pays seller and removes the token info from mapping\n        _paySellerAfterPurchase(tokenOwner, tokenSalePrice);\n        delete _tokenInfo[_tokenId];\n    }\n\n    /**\n     * @dev Pays the seller (the owner of the NFT that created the listing)\n     * the sell price they offered the NFT for minus the commission fee.\n     */\n    function _paySellerAfterPurchase(\n        address _tokenOwner,\n        uint256 _tokenSalePrice\n    ) private {\n        uint256 payAmount = _tokenSalePrice - 1e12;\n        (bool success, ) = _tokenOwner.call{value: payAmount}(\"\");\n        require(success, \"Transaction failed.\");\n    }\n\n    // Sends ether to contract from the address that calls this function\n    function payContract() public payable {\n        (bool success, ) = payable(this).call{value: msg.value}(\"\");\n        require(success, \"Transaction failed.\");\n        emit ReceivedEther(msg.sender, msg.value);\n    }\n\n    // Owner of contract can withdraw all contract's ether\n    function withdrawAll() external onlyOwner {\n        address payable _owner = payable(owner());\n        (bool success, ) = _owner.call{value: address(this).balance}(\"\");\n        require(success, \"Transaction failed.\");\n    }\n}\n",
  "sourcePath": "/home/dark/Documents/Projects/nft-exchange/contracts/Exchange.sol",
  "compiler": {
    "name": "solc",
    "version": "0.8.6+commit.11564f7e.Emscripten.clang"
  },
  "schemaVersion": "3.4.1",
  "updatedAt": "2021-08-02T05:00:46.249Z",
  "devdoc": {
    "author": "Adrian Delgado - https://github.com/adriandelgg",
    "details": "To get all token IDs the exchange currently has for sale, you have to use tokenOfOwnerByIndex() along with balanceOf() in JS to enumerate through the array holding all the token IDs.",
    "kind": "dev",
    "methods": {
      "approve(address,uint256)": {
        "details": "See {IERC721-approve}."
      },
      "balanceOf(address)": {
        "details": "See {IERC721-balanceOf}."
      },
      "buyToken(uint256)": {
        "details": "Lets a user buy the NFT from the DEX. Function verifies that the amount sent in wei is equal to that of the sale price. If it is, the contract will accept the ether then transfer the NFT to the buyer. After it's been transferred, the DEX then transfers the ether minus 1e12 (1 szabo commission fee) to the original owner/seller of the NFT. Deletes the struct from the mapping after."
      },
      "getApproved(uint256)": {
        "details": "See {IERC721-getApproved}."
      },
      "getTokenBack(uint256)": {
        "details": "Allows the seller of the token to withdraw their sales listing and get their NFT back to their wallet address. No charge or ether will be paid since you can only get the token back if it's unsold. Only gas fee. Removes the sale listing from the struct mapping."
      },
      "isApprovedForAll(address,address)": {
        "details": "See {IERC721-isApprovedForAll}."
      },
      "mintNFT(string)": {
        "details": "Mints a new NFT & tethers a URI to it. Also accepts 1e12 ETH as payment for minting. URI must be only the IPFS hash"
      },
      "name()": {
        "details": "See {IERC721Metadata-name}."
      },
      "onERC721Received(address,address,uint256,bytes)": {
        "details": "See {IERC721Receiver-onERC721Received}. Always returns `IERC721Receiver.onERC721Received.selector`."
      },
      "owner()": {
        "details": "Returns the address of the current owner."
      },
      "ownerOf(uint256)": {
        "details": "See {IERC721-ownerOf}."
      },
      "renounceOwnership()": {
        "details": "Leaves the contract without owner. It will not be possible to call `onlyOwner` functions anymore. Can only be called by the current owner. NOTE: Renouncing ownership will leave the contract without an owner, thereby removing any functionality that is only available to the owner."
      },
      "safeTransferFrom(address,address,uint256)": {
        "details": "See {IERC721-safeTransferFrom}."
      },
      "safeTransferFrom(address,address,uint256,bytes)": {
        "details": "See {IERC721-safeTransferFrom}."
      },
      "sellNFT(uint256,uint256)": {
        "details": "Allows a user to sell their NFT to the DEX and also specify their sell price in wei. Checks to make sure the sell price is greater or equal to 2e12 because the DEX takes a 1e12 commission. Stores the listing info in a mapping that takes a token ID and returns a struct with the data."
      },
      "setApprovalForAll(address,bool)": {
        "details": "See {IERC721-setApprovalForAll}."
      },
      "symbol()": {
        "details": "See {IERC721Metadata-symbol}."
      },
      "tokenByIndex(uint256)": {
        "details": "See {IERC721Enumerable-tokenByIndex}."
      },
      "tokenOfOwnerByIndex(address,uint256)": {
        "details": "See {IERC721Enumerable-tokenOfOwnerByIndex}."
      },
      "totalSupply()": {
        "details": "See {IERC721Enumerable-totalSupply}."
      },
      "transferFrom(address,address,uint256)": {
        "details": "See {IERC721-transferFrom}."
      },
      "transferOwnership(address)": {
        "details": "Transfers ownership of the contract to a new account (`newOwner`). Can only be called by the current owner."
      }
    },
    "title": "A DEX for ERC721 tokens (NFTs)",
    "version": 1
  },
  "userdoc": {
    "kind": "user",
    "methods": {},
    "version": 1
  }
}